:020000040000fa
:080000000001040000000000f3
:020000040000fa
:100008009a0100009a0100009a0100009a0100007c
:100018009a0100009a0100009a0100009a0100006c
:100028009a0100009a0100009a0100004e22000087
:100038009a0100009a0100009a0100009a0100004c
:100048009a010000822200009a0100009a01000033
:100058009a0100009a0100009a0100009a0100002c
:100068009a0100009a0100009a0100009a0100001c
:100078009a0100009a0100009a0100009a0100000c
:100088009a0100009a0100009a0100009a010000fc
:100098009a0100009a0100009a0100009a010000ec
:1000a8009a0100009a0100009a0100009a010000dc
:1000b8009a0100009a0100009a0100009a010000cc
:1000c8009a0100009a0100009a0100009a010000bc
:1000d8009a0100009a0100009a0100009a010000ac
:1000e8009a0100009a0100009a0100009a0100009c
:0800f8009a0100009a010000ca
:020000040000fa
:100108009a0100009a0100009a0100009a0100007b
:100118009a0100009a0100009a0100009a0100006b
:100128009a0100009a0100009a0100004e22000086
:100138009a0100009a0100009a0100009a0100004b
:100148009a010000822200009a0100009a01000032
:100158009a0100009a0100009a0100009a0100002b
:100168009a0100009a0100009a0100009a0100001b
:100178009a0100009a0100009a0100009a0100000b
:100188009a0100009a0100009a0100009a010000fb
:100198009a0100009a0100009a0100009a010000eb
:1001a8009a0100009a0100009a0100009a010000db
:1001b8009a0100009a0100009a0100009a010000cb
:1001c8009a0100009a0100009a0100009a010000bb
:1001d8009a0100009a0100009a0100009a010000ab
:1001e8009a0100009a0100009a0100009a0100009b
:0801f8009a0100009a010000c9
:020000040000fa
:100200002fc520000eff20000e0188000000000016
:10021000000020000000e000020032000001200089
:10022000200288000c00070020932300010020001a
:1002300011000700000020000000e0000200320072
:1002400000000200000000000a2702000000000079
:100250000040da000000fe004440a900e024200035
:100260000000e0000300320000002000a001880030
:100270004440a8000000060091018800800078003a
:100280000000eb0015003700e280400032a0b4000f
:100290009101ba00e280400032a0b4009102ba009d
:1002a000e280400032a0b4000002eb00472bde00e9
:1002b000f507b200602ce10004003a000059eb00a1
:1002c0008301e900fdff3e00040037006128e100e2
:1002d000010032000082eb00040007001101ba00a7
:1002e0000200e000e8ff3a00000006003159ba00c1
:1002f0008301e9000c0032002159ba008301e900b2
:10030000080032000400e00003003a00e2804000f0
:1003100032a0b400f5ff370011d9ba008301e9001b
:10032000faff3a008100e800e180400032a0b4000a
:10033000000006000040da000000fe000a00fa009b
:10034000e20f500020003e0080628000e10f50006c
:1003500006003200e0212000a5212000832120009a
:10036000642120000000e00004003a004021200049
:1003700005212000e3202000c420200006002800e2
:100380001403630003003a00060878000000280008
:10039000140a700013a8a30001003a0013a0a000e3
:1003a00002007800050037001388a300feff32002a
:1003b0003102fb00840a78000000e9000000e00040
:1003c000f9ff3a000800370033002000b3bf9f0058
:1003d000c0bf9f00d1bf9f00e2bf9f006a8057004f
:1003e0003d0a07006fb99700020078000080fa000c
:1003f0000000060003f0a200889fbe008a9fbe0096
:100400008c1f78001b010700220133006450e100bb
:100410004f0032006420e1005200320003826c0081
:1004200007003b000905d0000306d000820f5400ee
:100430000c065d00020039000200320089017800dc
:10044000030678008582550004003d000003fd008e
:100450008103fd008502ea008b854200840f720053
:1004600002003b0060001000e08018006011b8003e
:100470000005eb007a28e1000a0039000600780048
:10048000c75ddd00f707b200878075002d003700db
:10049000828171000a017800610560008180d100cd
:1004a0000080d3008502e900f9ff3b00060440000c
:1004b0008784480002003b0060041400e0841c00b4
:1004c0000988a300070032008a81710082817100cf
:1004d000610164008904d1000884d3008b05e80021
:1004e000170037000978a30013003a000b00e00062
:1004f000130034008b05e9000804440089844c0093
:100500000a4474000978a3000d003a000b00e000d3
:10051000070034008b05e9000804440089844c007e
:1005200001003a000b0020000978a300f7ff320019
:100530000001eb0002003700828171000a0178009f
:10054000910007000cf0a70001f0a000da003700ce
:100550006420e10002003a00838f6c00da0033006f
:100560000801be000200be00d3003700889fbe0015
:100570008a9fbe008c1f7800be000700c5003300b4
:1005800003866c006450e1002e0032006420e1001c
:10059000330032006150e1002f0032006120e100a1
:1005a0003100320085855500eb07b00009002000be
:1005b00008042000050037000804440089844c002a
:1005c0000a0031000603430087834b0000015300fb
:1005d00081815b00f8ff33000203be000800a00029
:1005e0000804440089844c00f6ff3900c639dd0058
:1005f0008301730001003200130020008904d10040
:100600000884d3000998a300050032000800a70061
:100610000300a0008904d1000884d3008b05e80002
:100620008904d1000884d3000001eb000281d200cc
:100630005500070001f0a1000cf0a70001f0a00098
:100640009d0037006420e1009f0032000801be00d9
:100650000200be00f7ff37006120e1009a0032007f
:100660006000b800f3ff37000000200001f8270009
:10067000f0ff370014002000f5013700f4ff2f00d1
:10068000f30137000001be00650007000470a700f9
:1006900003f0a1006509b100160032000d0035001d
:1006a0006828e10006003500f0ff2f00f1ff270069
:1006b0000300e00013003b000100280000000500db
:1006c00000004000818048008502e900fcff3a00fc
:1006d00008003700f88f420002003c008000eb0069
:1006e000000005008100d1000080d3008502e800f1
:1006f000fcff3a000300e00002003b006000100035
:10070000e0801800000006000001be004400070061
:100710000470a70003f0a10003f8a30013003a003f
:100720006509b10010003200090035006928e100b8
:100730000200350001002800000005000000400014
:10074000818048008502e900fcff3a0000000600b5
:10075000f88f4200050035008100d1000080d300f1
:100760008502e800fcff3a00000006008000eb0074
:10077000000005004f89de0082017800cf013700bc
:100780006011b800dd013700810020006180550054
:100790000b003d000b00200061fe2f000100e10076
:1007a0001d00340082817100610164008904d10060
:1007b0000884d3000000e800faff3a00710020002e
:1007c0006100640003007000020060000900320054
:1007d00061044400e0844c000988a5000500320053
:1007e0008b05e8006808e10002003a008904d100a6
:1007f0000884d300f20f20000258e10005003d00fc
:10080000c75ddd00f907b200898075000800780037
:10081000000006000bf827008b00780000000500a0
:10082000c70ade00f107b200f50fb200080032007f
:10083000e1cf4200020032000170a0002400050058
:10084000810f70000100320004080500440005001b
:10085000810f700002003a00140005008502e900d3
:100860000000400081c04800fcff3b000170a00078
:10087000240005000004be00e9ff07000003be00dd
:100880000405be000200be00e5ff0700844f7500ae
:10089000000006000200be006450e10005003600c2
:1008a0006420e100020036000968a30001003a005c
:1008b0000800be000160a0004f0678004f05be0092
:1008c0004f04be0000000600f0ff2f00f1ff2700dc
:1008d000f9ff3700889fbe008a9fbe008c1f7800fa
:1008e000e4ff0700ebff330003866c006450e10077
:1008f000240032006420e100270032006150e10052
:10090000220032006120e100210032008b8542008c
:10091000eb07b1000134b800003ab8000804420007
:1009200089844a00013ab8000030b800888040004d
:1009300009014a00040033000000400081804800a3
:10094000020149008b05e900c909dd00830170003f
:100950000100320013002000c814de004814dd003e
:100960004709de001200b200c808de0008847000eb
:1009700085ff070001f0a1000cf0a70001f0a00026
:10098000cdff37006120e100cfff32000801be003b
:100990000200be00f7ff37006150e100fcff3a00a3
:1009a000c9ff3700889fbe008a9fbe003004420006
:1009b000b0844a0030054b0090854b006000b100c8
:1009c0000898be000a90be000440e10005c8e1009e
:1009d00006d0e10007d8e1000200310068004000c5
:1009e0001008e8004f05be004f04be0000000600de
:1009f000889fbe008a9fbe003004be002005be0056
:100a00000418540005985c0006185d0007985d0006
:100a1000110020000440e10005c8e10006d0e1001b
:100a200007d8e100010039008000eb0010881000b9
:100a30004f05be004f04be00000006001200fa0081
:100a4000889fbe008a9fbe008c9fbe00e0b79f00bb
:100a5000f1b79f0082bf9f0093bf9f000605be00b5
:100a60000404be000000eb00d0b79f00c0b79f0099
:100a7000b0b79f00a0b79f0090b79f000006eb00a3
:100a80005fb19700cfb09700820141003fb097005f
:100a90000200e00004003d00370007007e805700a0
:100aa000c0ff070003003700330007007e805700b7
:100ab000cfff0700dfb697000d00e0000c00350007
:100ac0006fb29700ffb297000fbb97009fbb9700d4
:100ad00010002000010020006011b8000002720028
:100ae0008182720002037300838373001b0007007e
:100af0000c06e80001042000810f5600e0ff3a00d8
:100b00000d00e00004003d000802be000a03be0024
:100b10007e805700a3ff07005fa897000000e00059
:100b200005003a001fb29700afb297003fb397009d
:100b3000cfb39700090007006fb09700ffb0970090
:100b40000fb997009fb997004f06be004f05be0032
:100b50004f04be000080fa000000060001000700fc
:100b600000000600a4b79f00b5b79f00c6b79f005e
:100b7000d7b79f00000006004f09de008281710098
:100b8000b3b79f004f01de0081804000828070007b
:100b9000a1b79f008fb097004f09de000000400012
:100ba0000200700090b79f007fa897004f01de0001
:100bb000818040008280700081b79f000d00070097
:100bc0004f3ade000000400004007000f0af9f00cc
:100bd000080007000402420085824a0006034b0019
:100be00087834b00dfff07000802be000a03be0038
:100bf000000006002fb29700bfb297004fb39700d6
:100c0000dfb3970000000600881f7800180020005e
:100c1000881f780089ff07008f87e9004f0478005c
:100c200000000600801feb0084ff07008f87e900ab
:100c300000000600889fbe008a9fbe00e00f5000a3
:100c4000e08f5800e00f5900e08f59000c003d0084
:100c50006044b8006055b8000000540081805c001a
:100c600002015d0083815d0018002000150007006f
:100c700008003d00180007000004eb0005003700e5
:100c80000004eb000f00070002003d001200070007
:100c900018002000dcff07000800e000060032001a
:100ca0006022b8006033b8000000520081805a0012
:100cb00002015b0083815b004f05be004f04be0054
:100cc00000000600e00f5200e08f5a00e00f5b00ca
:100cd000e08f5b00000006006044b8006055b8007b
:100ce0000402540085825c0006035d0087835d007a
:100cf00000000600889fbe008a9fbe008c1f7800ff
:100d0000e00f5000e08f5800e00f5900e08f5900cd
:100d10000d003d006044b8006055b800000054006c
:100d200081805c0002015d0083815d001c00200069
:100d30000820e10009a8e1000ab0e1000bb8e100d9
:100d40000d003d00080037000006eb00e00f5200e8
:100d5000e08f5a00e00f5b00e08f5b0006003d0073
:100d60006044b8006055b8000402540085825c00fd
:100d700006035d0087835d00aaff07000c00e0000a
:100d8000060032006022b8006033b8000000520054
:100d900081805a0002015b0083815b004f0678006e
:100da0004f05be004f04be0000000600889fbe0035
:100db0008a9fbe008c1f78000006eb00e00f5000f9
:100dc000e08f5800e00f5900e08f590007003d0008
:100dd0006044b8006055b8000000540081805c0099
:100de00002015d0083815d001c002000e00f5200c5
:100df000e08f5a00e00f5b00e08f5b0007003d00d2
:100e00006044b8006055b8000402540085825c005c
:100e100006035d0087835d000c00a20066000700ea
:100e20000c00e000060032006022b8006033b80019
:100e30000000520081805a0002015b0083815b0048
:100e40004f0678004f05be004f04be0000000600ac
:100e5000889fbe008a9fbe00841f780085fe070021
:100e60004f00780011003300f0ff2f00838f6c00db
:100e700006003b00040565000a00a70008003700d3
:100e800009f0a6001000200008003700820f54006f
:100e9000838f5c00030039001000200001003e0039
:100ea0000000200009f0a7000000ea004f05be0086
:100eb0004f04be000000e00000000600881f78001c
:100ec000030478000300e00007003d00600010000c
:100ed000e080180060011900e081190002003b0069
:100ee00001f02d00030037000400070008f0a70000
:100ef00001f0a0004f04780000000600889fbe00ab
:100f00008a9fbe000082700004027100048271009a
:100f1000260032000004be000200be006011b800ce
:100f20006b092000950220000182cf000a003900e1
:100f30000541b1000082cf00070039000541b10032
:100f40000982cf00040039000541b1000882cf00ba
:100f5000010039000541b100054252001200320083
:100f60000a003b0082817100610164008100d100b0
:100f70000080d3008984d3000884d3008b05e80067
:100f80000442e800f7ff3a00070037000804440075
:100f900089844c0000004800818048008b05e900ee
:100fa0000442e900f9ff3a00f7fd07004f05be00d3
:100fb0004f04be0000000600889fbe008a9fbe004e
:100fc0008c9fbe000404b8000506b80089044600e2
:100fd00060854e000606b8000a054600e0854e0012
:100fe0000706b8008b054600040eb80089044600c9
:100ff0000a854e00e0854d00050eb8000a05460042
:101000008b854e00060eb8008b0546000416b8000e
:101010000a0546008b854e000516b8008b05460074
:10102000041eb8008b0546000800be000a01be0081
:101030004f06be004f05be004f04be000000060074
:101040008001780002003700b15978000201e90000
:101050000200e000fcff3a00000006000c00fa006d
:10106000889fbe0000047800f0ff2700d0bf9f00db
:101070008004eb0099bf9f0088bf9f00a8bf9f001e
:10108000200c2000b0bf9f0078815700cfb09700a0
:1010900070805700cf0007000fb89700094878000c
:1010a0008fb89700088050004f04be000080fa00ff
:1010b000000006000800fa00889fbe008a9fbe005c
:1010c0000084fb00d1c6b300814f500034003600cd
:1010d0004b062000110009000b84d8008105780020
:1010e000720040004300dd00a9aa200000804400f7
:1010f0006022b8000600200007fe23005001be0059
:101100004000be00b90807000002be000203be0096
:1011100084bf9f0095bf9f00a6bf9f00b7bf9f00e1
:10112000aa002000110009008a85d80080057800f7
:10113000e9854500c35ddd008b8544003b02be00b0
:101140002b03be000fb897009fb897002fb99700e8
:10115000bfb99700a50807000002be000203be0049
:1011600084bf9f0095bf9f00a6bf9f00b7bf9f0091
:10117000110009000a84d800010478004344dd000e
:10118000888444003902be002903be000fb89700ce
:101190009fb897002fb99700bfb997001d0037007f
:1011a000ea4f500013003600aa0020001100090089
:1011b0000a84d80001057800690440004344dd003a
:1011c000a9aa2000088444006022b800060020007c
:1011d00007fe23003800be002801be008308070078
:1011e0004355dd008a8444003902be002903be0055
:1011f000080037004344dd00a0aa20000804400096
:101200006022b8000600200007fe23003800be0060
:101210002801be00750807004f05be004f04be0040
:101220000080fa00000006000800fa00889fbe0057
:101230008a9fbe00d1c6b3000004e00023003d0039
:101240000040ea000004fb00814f50000a00340017
:1012500042062000110009000204d800a900200065
:10126000110009008900d800e9004000c308dd0032
:10127000aaaa200021003700ea4f500010003400d5
:10128000a2002000110009000204d800010178002a
:10129000690040004300dd00a1aa2000008040005a
:1012a0004311dd00828040003102be002103be00f8
:1012b0005001be004000be004c0807003800370057
:1012c0004344dd00a0aa2000320037000004fb00e8
:1012d000814f500023003400420620001100090015
:1012e0000204d800a9002000110009008900d800dc
:1012f000e9004000c308dd00aa9f200081004500ee
:101300003102be002103be008b0920008a85450002
:101310003b00be002b01be00340807000002be00e7
:101320000203be0084bf9f0095bf9f00a6bf9f0021
:10133000b7bf9f00110009000904d800010478001c
:101340004344dd00080545003a02be002a03be0002
:101350000fb897009fb897002fb99700bfb99700b3
:10136000d5ff3700ea4f500008003400a2002000eb
:10137000110009000204d800010178006900400052
:101380004300dd00a19f2000c4ff37004344dd007f
:10139000a09f2000080440003800be002801be00c5
:1013a0004f05be004f04be000080fa00000006009a
:1013b000d0019000028151004240a9000300340096
:1013c00010017800014978000208e8000100780067
:1013d000000006002f04b000889fbe008a9fbe0058
:1013e0008c9fbe008e1f780000067800e19f9f0052
:1013f00082af9f006000b8006011b80080a79f0016
:1014000091a79f00a2a79f00b3a79f008006eb00b3
:10141000a3053700ef9897008100e800e19f9f0047
:1014200051c2b300814f500003003a006f999700fa
:101430000007eb0011003700bc0090000000fb002b
:101440000168a300070032000d01780080007800d9
:101450000c007800d6ff07000000e00005003a000d
:101460008f0537008c00780099050700e10f4000d8
:101470008b0532008d06e8008905370002007800f0
:10148000b2407800d3c2b30083cf50000c003200ca
:1014900007003c00edc1510083cf50000a0032002c
:1014a000ebc1410083cf50000d003a000800370027
:1014b00003c3b30083cf500009003a000600370091
:1014c0000e30a000edff37000e00a000ebff37004c
:1014d0000e10a000e9ff37000e20a000e7ff370044
:1014e0000e18a300010032000e00a1000e38a30068
:1014f000010032000e20a1000101fb000203b10037
:10150000e90f51000e003e00800078000001eb0062
:1015100092b79f006a11b9003100fb000003b100cf
:1015200002014000010078009101fb000303b100bb
:10153000e98f5100f7ff360092b79f000a0037008d
:101540008001eb0093b79f00a2c2b30082cf50008e
:1015500005003a000faa9700c402780084af9f00ec
:1015600095b79f000000e800e1c2b30090cf1000e3
:1015700017003a000ee0a000e4c05000d0cf1000e9
:1015800003003200800078008001eb000900370082
:101590008fab9700c700780087af9f00d1af9f0047
:1015a0000000e800000178000d0037006a1ab90059
:1015b00084014100010078003101fb000203b10009
:1015c000e90f5100f9ff3600d3af9f00f5ff370058
:1015d0000ec0a0000001eb00d2af9f00f1ff37006a
:1015e000820178003340780003017800c1c6b3005f
:1015f000814f50002b003200e39f9f0014003c00fd
:10160000e8c05000814f50002400320009003c0027
:10161000ecc05000814f50002e003200ebc0400063
:10162000814f5000980032000004e0002105320094
:10163000b400370061c6b300814f50001f00320074
:10164000e3c04000814f5000ae003a001300370065
:1016500031c7b300814f50002200320007003c0028
:10166000e4c05000814f5000170032008140e80074
:10167000814f5000a3003a001600370051c7b30055
:10168000814f5000a4003200e3c04000814f500061
:101690009c003a00a0779f0010003700a0779f00c1
:1016a0009f003700000120000e48a3000100320017
:1016b000000028000e077000c9ff3700a0779f00c8
:1016c0000ea0a00096003700a0779f000e60a0003b
:1016d00093003700a0779f000e50a0000e70a0006e
:1016e0008f003700a0779f008fa9970043007800f4
:1016f00083af9f00000478000000e00001003a0082
:10170000c8b72000880078000000eb000100370017
:101710000000e800614178000204e000fcff3a00ac
:10172000800478005faa97000400e0000300320004
:10173000890f520001003100840478008001eb0021
:101740009fb29700898f52000100360089815200b4
:1017500068036700d6af9f002c003a0003077800ab
:10176000110037003c0090000068a3000700320021
:101770000d017800010220000c0078000cff07002a
:101780000000e00006003a00060037008c007800f8
:1017900000022000ce040700e10f400001003200eb
:1017a0008d06e8000e07e9000e00e000edff3a00ac
:1017b0008081eb00150037003c0090000068a3001a
:1017c0000900320008007800b000fb000004780037
:1017d0000d0178000c007800f5fe07000000e00025
:1017e00008003a000a003700880078003100fb004a
:1017f000010478008c007800b5040700e10f400078
:10180000030032008d06e80001003700030778006e
:10181000090078008004e9000000e000e6ff3a00db
:101820008e017800dfab97000700e0009c043200d7
:1018300003077800110037003c0090000068a30007
:10184000070032000d017800010220000c00780032
:10185000d7fe07000000e00006003a00060037004f
:101860008c0078000002200099040700e10f40007e
:10187000010032008d06e8000e07e9000e00e000ce
:10188000edff3a00860437008fa8970041007800ea
:1018900081af9f006102b900612bb90094af9f0036
:1018a000a5af9f00b6af9f00c7af9f004822de00e4
:1018b0004828dd0004027000a4779f000e48a300b2
:1018c000090032000404e00007003200e14f42004a
:1018d00005003200b4779f00afd09700c1779f001a
:1018e00029002000030037002fd19700b2779f0016
:1018f0001900200023fb2f008f8141000304e80022
:1019000088ff3700a0779f0028fb2f000f044400ba
:101910001900200083ff3700a0779f000e0cb30052
:101920000070200000006700640232000ec8a300af
:101930000200320064002000d4af9f000e48a300d4
:10194000090032000faa97004401be004400be0007
:1019500084af9f0090af9f00a1af9f00b2af9f00e8
:10196000c3af9f000a0037008faa97004500be0052
:1019700085af9f00050607000002be000203be00ff
:1019800094af9f00a5af9f00b6af9f00c7af9f0069
:101990006022b8006033b8001fa89700afa8970076
:1019a0003fa99700cfa997004a0507000000e00073
:1019b0000a003d001fa89700afa897003fa9970015
:1019c000cfa9970003f0a20090af9f00a1af9f00a6
:1019d000b2af9f00c3af9f003e00b3000000eb001a
:1019e000b09f9f006022b8006033b8001fa8970026
:1019f000afa897003fa99700cfa9970099050700c6
:101a00000000e0003400320064fb2f000f024200af
:101a10001fa89700afa897003fa99700cfa99700ec
:101a2000550607003f9897000000e9006302b900df
:101a3000a2002000110009000202d800b09f9f0000
:101a40000000e00002003d000000e900b09f9f00a0
:101a50003f9c97000840ea00f3fd07001faa97008b
:101a6000afaa97003fab9700cfab97005f06070088
:101a70000002be000203be0084a79f0095a79f003e
:101a8000a6a79f00b7a79f006022b800060020000d
:101a900007ff23000f0507000000e00002003d00e3
:101aa0000804e9000b0037006022b800060020009f
:101ab000470224000fa097009fa097002fa1970036
:101ac000bfa19700080507000000e00002003500f4
:101ad0000804e800b89f9f00dfaa9700f88f520023
:101ae0000f003c000540780072fd07000002be00b8
:101af0000203be001fa89700afa897003fa9970058
:101b0000cfa99700760407000002be000203be00c2
:101b100094af9f00a5af9f00b6af9f00c7af9f00d7
:101b20003f9c9700e90f540015003c006022b8006c
:101b30006033b8001fa89700afa897003fa997008f
:101b4000cfa99700470507000000e00032003200ef
:101b50001fa89700afa897003fa99700cfa99700ab
:101b6000a9050700e00f5000e08f5800e00f590072
:101b7000e08f590028003a00e10f5400260034009d
:101b80000400200005002e00b6e02200170124000a
:101b90000fa097009fa097002fa19700bfa19700cb
:101ba000cc0407000000e00002003d007304540074
:101bb0000100370072045400b89f9f006f709700b7
:101bc00099fd07000002be000203be0084a79f002b
:101bd00095a79f00a6a79f00b7a79f001fa89700e3
:101be000afa897003fa99700cfa99700c3040700ab
:101bf000850507000205be000004be006000b800b5
:101c00006011b80090af9f00a1af9f00b2af9f00de
:101c1000c3af9f00170037001fa89700afa8970019
:101c20003fa99700cfa99700770507000205be00de
:101c30000004be00a50507000002be000203be00ae
:101c40001fa89700afa897003fa99700cfa99700ba
:101c50005b0607000002be000203be0094af9f00b7
:101c6000a5af9f00b6af9f00c7af9f000000eb007d
:101c7000b09f9f00c5b8200014c0b3000800370013
:101c80003500be003501be000040e10001c8e100a2
:101c900002d0e10003d8e100030039000442e8006b
:101ca000f44f5200f6ff3a00a4779f003f98970048
:101cb0009fb29700008052005fab970086005000f3
:101cc0000400fb000080500090b79f000600e00079
:101cd000020032000000e90090b79f006300670037
:101ce000030032009fb397008703e90097b79f0076
:101cf0000e28a30050003200610167000e18a300f7
:101d00000f0032003c0090000068a3000600320083
:101d1000b10220000200e000010032008180e800f2
:101d20000d0178000d003700b00220000200e00035
:101d3000010032000080e8008c0078000e003700bf
:101d40000200e000330032003c0090000068a30075
:101d5000070032000d017800010220000c0078001d
:101d600093fd07000000e00006003a00290037005c
:101d70008c0078000002200055030700e10f4000ae
:101d8000240032008d06e800220037003c0090005d
:101d90000068a3000f0032000d017800010320004d
:101da0000c007800f4b79f0085bf9f00d6b79f0056
:101db000e7b79f007efd07007fb297008fba9700bc
:101dc0005fb39700efb397000000e0000e003a0009
:101dd0000e0037008c00780000032000f4b79f004d
:101de00085bf9f00d6b79f00e7b79f003803070065
:101df0007fb297008fba97005fb39700efb3970059
:101e0000e10f4000010032008d06e8008904e9007e
:101e1000030037000802be000a03be009fb497000b
:101e20000900e000d9ff3c0099b79f000605be00fd
:101e30000404be00670037000e38a3001e003a00fd
:101e4000c8a79f00d9a79f00eaa79f00fba79f00f4
:101e50009fb49700110037003c0090000068a30079
:101e6000070032000d017800010220000c0078000c
:101e70004ffd07000000e00006003a0006003700b2
:101e80008c0078000002200011030700e10f4000e1
:101e9000010032008d06e8008904e9000900e00035
:101ea000edff3c0099b79f004fa49700dfa4970077
:101eb0006fa59700ffa59700610167000e18a300aa
:101ec0000e0032003c0090000068a30005003200c4
:101ed000b10220000200e000250032008180e8000d
:101ee00023003700b00220000200e00001003200b1
:101ef0000080e8008c007800320037000200e0002b
:101f0000340032003c0090000068a300030032005f
:101f10000d01780001022000160037008c007800c7
:101f200000022000270037003c0190008100fb00e8
:101f300040b820000268a30013003200c308dd008f
:101f4000010040003002be002003be000800be00b9
:101f50000a01be002cfb0700a400200005002000a1
:101f60006033b8002ffb0700010320008080400091
:101f70000d0178000c0078000dfd07000000e00066
:101f800013003a0013003700c308dd0001004000d1
:101f90003002be002003be000800be000a01be00e1
:101fa00019fb0700a4002000050020006033b800e2
:101fb0001cfb070002032000000141008c00780098
:101fc00002007800c2020700e10f40000100320069
:101fd0008d06e8002f7097008040e900a1779f00f0
:101fe0000004e000d0ff3a00130037003c009000ee
:101ff0000068a300070032000d01780001032000f3
:102000000c007800eafc07000000e00006003a003f
:10201000060037008c00780000032000ac020700a7
:10202000e10f4000010032008d06e8003f98970064
:102030000000e900b09f9f003f9897000000e0007b
:10204000eaff3c00dfa89700f28f50000300340045
:1020500020c1b300a0779f00020037002fd997005e
:10206000a2779f002f7097008000fb00dfa99700e8
:1020700081805100d1af9f000004e00010003200c9
:102080003c0090000068a300070032000d017800ba
:10209000e10220000c007800c5fc07000000e00011
:1020a00006003a00060037008c007800e0022000ad
:1020b00087020700e10f4000010032008d06e800b2
:1020c0002f70970058fc07000002be000203be00fc
:1020d0001fa89700afa897003fa99700cfa9970026
:1020e000c204070048040700330037003c01900099
:1020f00041b820000000fb000268a300130032007a
:102100004300dd00008040003002be002003be001e
:102110000800be000a01be00bbfa0700a4002000b0
:10212000050020006033b800befa07000003b000cd
:102130000d017800800078000c0078009cfc0700fe
:102140000000e00011003a00110037004300dd00fc
:10215000008040003002be002003be000800be0028
:102160000a01be00a8fa0700a40020000500200014
:102170006033b800abfa07000003b0008c007800b1
:1021800053020700e10f4000010032008d06e80015
:102190002f7297000400fb004300dd0041b82000cf
:1021a000008040003002be002003be000800be00d8
:1021b0000a01be009bfa07000205be000004be0033
:1021c000af7097000140e900a0779f000104e00094
:1021d000c6ff3a0098af9f00a9af9f00baaf9f001b
:1021e000cbaf9f00dfac9700110037003c009000a0
:1021f0000068a300070032000d01780001032000f1
:102200000c0078006afc07000000e00006003a00bd
:10221000060037008c007800000320002c02070025
:10222000e10f4000010032008d06e8008904e9005a
:102230000900e000edff3a001fac9700afac97003b
:102240003fad9700cfad97000e38a30014023200c7
:102250009fb097000100e00011023400d8af9f004a
:10226000e9af9f00faaf9f008bb79f008104780011
:102270003c0090000068a300070032000d017800c8
:10228000010220000c00780049fc07000000e0007b
:1022900006003a00060037008c007800000220009b
:1022a0000b020700e10f4000010032008d06e8003c
:1022b0008904e900eeff3a00f90137000e007800ca
:1022c000000cb20021003a000e00e00005003d00c5
:1022d0008faa97004505be004504be0085af9f004c
:1022e0000d0037000e48a300060032000fab970028
:1022f0004604be0086af9f004fcdde008a05780001
:10230000050037008fab97004704780087af9f0028
:10231000cfc4de00614db900e00f5400e08f5c00d7
:10232000e00f5d00e08f5d001b003d003e00b3004c
:102330006000b8006011b80008045000898458009b
:102340000a0559008b855900130037000e00e00084
:1023500005003d000fa897004005be004004be00e8
:1023600080af9f000c0037000e48a300050032002c
:102370008fa897004104be006055b80081af9f0050
:10238000050037000fa997004204780082af9f0034
:102390008004eb006055b800dfa997000300e0005f
:1023a00009003a0014002000d4af9f00e00f540051
:1023b000e08f5c00e00f5d00e08f5d000200320006
:1023c0008002eb00d5af9f000e037800060cb20030
:1023d00096af9f0000042000800f53002c003200b5
:1023e00003003c000600e000080032003c0037001b
:1023f000000820009fab9700808f53001000320030
:10240000000c2000808f530035003a00c5b8200032
:1024100014c0b3003500be003501be000040e1002d
:1024200001c8e10002d0e10003d8e1002b0039002f
:102430000442e800f44f5200f6ff3a00270037004c
:1024400014c0b30000012000010020006011b8009a
:102450000040e10001c8e10002d0e10003d8e10042
:102460001e003900450020000000d0008180d2000d
:102470000281d2008381d2008502e900faff3a008e
:102480000442e800f04f5200f1ff3a001300370019
:1024900014c0b30080002000010020006011b800cb
:1024a0000040e10001c8e10002d0e10003d8e100f2
:1024b0000a003900360020000000d0008180d200e0
:1024c0000281d2008381d2000603e900faff3a00bc
:1024d0000442e800f54f5200f1ff3a00a4779f0054
:1024e000af7397000700fb00dfa89700810f500033
:1024f00002003d00a1779f00040037005fa997000c
:10250000800f510001003d00d0af9f009fb19700a8
:102510000300e000040032006300670002003200a4
:102520008301e90093b79f000ee8a3000900320081
:102530001fb29700dfaa9700850f520003003400f6
:102540000502520094b79f00020037000003eb0021
:1025500096b79f00af7397000700fb008000eb0069
:10256000c1a79f001fb19700800f510002003400e7
:1025700000005100c0a79f000e28a30044003200b5
:10258000610167000e18a3000f0032003c009000ac
:102590000068a30006003200b10220000200e00043
:1025a000010032008180e8000d0178000d00370045
:1025b000b00220000200e000010032000080e800cc
:1025c0008c0078000e0037000200e000100032009e
:1025d0003c0090000068a300070032000d01780065
:1025e000010220000c00780071fb07000000e000f1
:1025f00006003a00060037008c0078000002200038
:1026000033010700e10f4000010032008d06e800b1
:10261000cfa197000300e0006200320098b79f004e
:10262000a9b79f00bab79f00cbb79f00830478007b
:102630003c0090000068a300070032000d01780004
:10264000010320000c00780059fb07000000e000a7
:1026500006003a00060037008c00780000032000d6
:102660001b010700e10f4000010032008d06e80069
:102670008904e900eeff3a00c9a79f001fb4970044
:10268000afb497003fb59700cfb59700450037002e
:10269000cfa297000500e0001e0032000e38a30014
:1026a0001c003a0098b79f00a9b79f00bab79f00d7
:1026b000cbb79f00850478003c0090000068a30021
:1026c000070032000d017800010220000c007800a4
:1026d00037fb07000000e00006003a000600370064
:1026e0008c00780000022000f9000700e10f400094
:1026f000010032008d06e8008904e900eeff3a008f
:10270000c9a79f001fb49700afb497003fb59700cb
:10271000cfb59700610167000e18a3000f003200cb
:102720003c0090000068a30006003200b1022000c7
:102730000200e000010032008180e8000d01780015
:102740000d003700b00220000200e000010032005e
:102750000080e8008c0078000e0037000200e000e6
:10276000100032003c0090000068a3000700320017
:102770000d017800010220000c0078000cfb07001e
:102780000000e00006003a00060037008c007800e8
:1027900000022000ce000700e10f400001003200df
:1027a0008d06e800dfa897000100e9004201dd0086
:1027b000d29f9f006301b90002027800c49f9f006e
:1027c0004300dd0041b8200081004000f19f9f00e0
:1027d00098b79f00a9b79f00bab79f00cbb79f00db
:1027e00094003700dfa897008100e900d1af9f0077
:1027f000000420001fa99700800f510064003200e0
:1028000003003c000200e000080032006f003700c7
:10281000000820009fa99700808f510048003200d7
:10282000000c2000808f510068003a000e00e0008c
:102830001a003d007f9a97003404be002405be00b4
:102840000802be000a03be001fb09700afb0970099
:102850003fb19700cfb19700ebf80700a0779f003a
:102860000000fb00cf80de006109b9000802be0055
:102870000a03be004df907001fb29700afb29700e0
:102880003fb39700cfb397000002520081825a00f5
:1028900002035b0083835b00170037000e48a30030
:1028a0001a0032001fb29700afb297007f9b9700cb
:1028b0003604be002605be000801be000400be00ae
:1028c000f4b79f0085bf9f003f030700a0779f00dc
:1028d0000000fb00cf80de000801be004a030700b5
:1028e0007fb297008fba97000000520081805a0093
:1028f0000002be006033b80094b79f00a5b79f00e8
:10290000b6b79f00c7b79f0009003700ff9a97002e
:10291000150178001fb39700110009000283d80049
:10292000a2002000110009000280d800a1779f00ba
:10293000af7397000743b000a7779f0023003700cd
:10294000b0b620000e58a30001003200a0b5200050
:102950001fb29700afb297003fb39700cfb3970075
:10296000df9897008100e900050033008703d1005c
:102970000683d3008582d3000482d300f9ff370099
:102980006f02620060427a00a4779f000f00370058
:102990001fb09700afb097003fb19700cfb197003d
:1029a0004f9a97000402e900050033008301d1002b
:1029b0000281d3008180d3000080d300f9ff37006b
:1029c000674060000043b000a0779f00bc0090000b
:1029d000af7297000500fb000168a30007003200fa
:1029e0000d017800800078000c00780070fa070074
:1029f0000000e00005003a00050037008c00780078
:102a000033000700e10f4000010032008d06e800ae
:102a10005f9b970064035300d69f9f00cf9b970056
:102a2000e3835300c79f9f007f9897006800500082
:102a3000f09f9f00dfa897000100e00069ff3a00c7
:102a40000e38a300160032004fa197000200e000ec
:102a500013003400020778003c0090000068a300d7
:102a6000070032000d017800010220000c00780000
:102a70004ffa07000000e00006003a0006003700a9
:102a80008c0078000002200011000700e10f4000d8
:102a9000010032008d06e8000e07e900eeff3a0063
:102aa000ef99970013407800a0779f000004e000a2
:102ab00058fa3a000d0078004f0778004f06be0024
:102ac0004f05be004f04be002f04b10000000600f9
:102ad000889fbe0001047800b80090008084eb005d
:102ae0000118a3003a003200180190000198a300d9
:102af00002003a000200e00035003a000190a00018
:102b00003104980080047800f90fb2000200e00060
:102b100002003a0028009000000c7800ea8f540070
:102b200005003a000178a30003003a00880078000d
:102b3000d0002000e6ff070018009000d8009000a9
:102b4000810f50000b0032000000e80010049800d4
:102b50001800780009487800000ce80011c0b300a4
:102b6000a0c4200001487800ea8f540018003a0001
:102b7000050037008800780009407800170007003a
:102b80008004780012003700380090000088a3000d
:102b90000f00320018019000a8009000480090003b
:102ba000e6f5070098009000810f50000400320005
:102bb000380090000003b300300498008084eb00dc
:102bc0000000eb001004980028009000000c780032
:102bd000090078004f04be00000006000200fa0061
:102be000889fbe00a0ff9f0001047800380090007d
:102bf0000068a30033003a00e200600005003a00dc
:102c00000003b30030049800110498000080eb002a
:102c10002e003700d80490000900e00006003a00ba
:102c200012002000e680570048009000c3f507001e
:102c30001904980023003700a80090000100e0006c
:102c400008003a00d1c4200021049800010c78004b
:102c50002100200051049800110498000030a000c9
:102c60003004980018019000a800900048009000df
:102c7000b2f50700280090008080eb001104980056
:102c8000aff8970001487800000ce8002ff8970093
:102c9000ea4f50000b003a00380090000088a30073
:102ca0000800320018019000a80090004800900031
:102cb000a2f507000000eb0010049800a8009000a7
:102cc000010c7800aff897000100fb004f04be0034
:102cd0000080fa000000060000c0da0000000600d4
:102ce0002800fa00889fbe008a9fbe008c9fbe000d
:102cf00007067800878669000c003b000304780013
:102d00008704780008f0a10009f0a100840f5000aa
:102d1000858f5800860f5900890f5c00030033002f
:102d20000cf0a20001003a000cf0a100fe00070028
:102d30006400e1005f003200780147006408e100b0
:102d4000610032006c014700748557003200be00fc
:102d50001201be003a04be001a05be001e03900018
:102d6000be0a90008503530006003d000004fd00ec
:102d70008104fd000205fd008305fd008703ea00d4
:102d8000050378000df8a30004003200600414006d
:102d9000e0841c0060051d00e0851d006022b80075
:102da0007d0320000d38e1008006eb000b003900a8
:102db0004433dd00f300b2008301730039003700b3
:102dc000848272000d027800e10664008b85d100d8
:102dd0000a85d3008984d3000884d3008703e900df
:102de000f7ff3b0008004000898048000a014900c5
:102df0008b81490004003b0060001000e080180057
:102e000060011900e08119000358a3000900320095
:102e10008d82720084827200610260008301d100a1
:102e20000281d3008180d3000080d3000603e80034
:102e30001b0037000348a30017003a000600e0001b
:102e4000170034000603e9000d00a300000048004d
:102e50008180480002014900838149000348a300a2
:102e60000f003a000600e000090034000603e90004
:102e70000000400081804800020149008381490030
:102e800001003a000003eb000348a300f5ff320005
:102e90006022b800020037008482720061826600fe
:102ea0007500070003f0a1000cf0a70003f0a000dc
:102eb000b1003700640147006408e10002003a00f5
:102ec0000df8a300a9003a003200be001201be00b6
:102ed000a90037008f1fd100d10107008f87e900bb
:102ee0000000e00000000600809feb00cc0107001e
:102ef0008f87e9000000e000000006002800fa00cb
:102f0000889fbe008a9fbe008c9fbe0003866b0018
:102f1000850007006400e100440032006408e1001d
:102f20004a0032006100e100460032006108e10021
:102f300049003200ec0647006000b8003d02be00c8
:102f40003d03be00f48657006011b8003d04be008a
:102f50003d05be007d0320000b0037000000a000ef
:102f60008d06e900130032000402420085824a0007
:102f700006034b0087834b0000004000818048001f
:102f800002014900838149000802520089825a00e7
:102f90000a035b008b835b00f0ff3b0008024200ea
:102fa00089824a000a034b008b834b008d06e9009f
:102fb000edff3a008482720086827200f707b20049
:102fc0008782720001003200150020001e0490006c
:102fd0003e0b900006035400e63fb0000368a300d8
:102fe000070032000000a7000500a0008301d10007
:102ff0000281d3008180d3000080d3000603e80063
:103000008301d1000281d3008180d3000080d300ee
:103010000002eb000482d2001700070003f0a100b9
:103020000cf0a70003f0a000530037006402470033
:103030006408e1004d0032003400be003401be00df
:10304000f6ff37006108e100480032006011b80067
:103050006000b800f1ff370003ff270002002000e6
:10306000fbff3700801feb006d0107008f87e90031
:103070000000e000000006001800200057002000bb
:10308000080453000d003d000600200097fc2f00af
:103090000740e1001e00340084827200610260007b
:1030a0008301d1000281d3008180d3000080d3004e
:1030b0000804e800f8ff3a004700200061046000bf
:1030c00005047400040464000d0032006100400037
:1030d000e080480060014900e081490003b8a50094
:1030e000070032000603e8006538e10004003a00fa
:1030f0008301d1000281d3008180d3000080d300fe
:10310000f87f20000830e100030035000803780054
:103110006000b8006011b8004433dd00f300b20075
:103120008301730000000600680447000294be009b
:103130000094be00fc0447008694be008494be0048
:10314000090078007f010700080078007d01070072
:1031500099007800814f70000b003b000800be0012
:10316000580107004f00b10003003700f3ff2700ac
:10317000f2ff2f006110b9004f06be004f05be00e0
:103180004f04be000080fa000000060081037800b2
:10319000a3f507000001be006000b8000478a3009a
:1031a00013003a006220e10015003e000d003900d6
:1031b0008301d1000281d3008180d3008301d1003b
:1031c0000281d3008180d3008301d1000281d3002a
:1031d0008180d3000538b000c42add00f300b200be
:1031e0008381720007f0a70003f0a0000000060032
:1031f000f3ff2700f2ff2f006110b900fbff37003b
:1032000003ff2700f7ff37001400fa00889fbe0075
:103210008a9fbe008c9fbe000004be000205be0057
:10322000680047000a90be000890be0045010700f4
:103230000070a7000bf0a1000bf8a30020003a00db
:103240009e0990000e099000fe0090006e00900014
:103250009e0290003443200084825200c6ff320058
:103260000a003c00b4fc2f000428e10014003400e4
:103270008301d1000281d3008180d3000080d3007c
:103280008502e800faff3a00bbff3700b4002000d7
:103290000428e10007003c00000040008180480055
:1032a00002014900838149008502e900faff3a00e2
:1032b000b1ff3700030028000200200001003700a2
:1032c0006011b8006000b800abff3700889fbe00f7
:1032d0000082700004027100048271002400320038
:1032e00036432000c50020008383cf000a00390048
:1032f0000541b1008283cf00070039000541b100cc
:103300008183cf00040039000541b1008083cf00e4
:10331000010039000541b10085c353006022b800a7
:10332000120032000a003b008482720061026000d9
:103330008301d1000281d3008180d3000080d300bb
:103340000603e8008743e800f7ff3a00070037006c
:10335000000040008180480002014900838149004b
:103360000603e9008743e900f9ff3a0042ff07003e
:103370004f04be00000006001400fa00889fbe0043
:103380008a9fbe008c9fbe00040678000004be0029
:103390000205be00680047000a90be000890be000b
:1033a000e80007006200e1000800be000a01be005c
:1033b000040020000b003a001e029000e43fb10020
:1033c0006e009000fe0090000e0990009e09900093
:1033d000f300b20005fe2300858171000bf0a70009
:1033e00003f0a000040e780063ff37002800fa0005
:1033f000889fbe008a9fbe008c9fbe0003866b0024
:1034000049ff07000028a30064003a000128a30038
:1034100067003a000008a30062003a000108a30018
:1034200065003a001e009000be0890008106400032
:10343000ed3fb100f4805700ee019000111ab80082
:103440008e099000311bb8009e099000311cb80015
:10345000511db800f485570046000700fe0190009a
:103460003a0007008b85e8003e0007008e099000b7
:1034700040000700ee019000340007008b85e80053
:10348000380007008e099000400007009e09900058
:103490001b18b800890440000a854800fe0190000e
:1034a000340007008b85e80038000700ee0190002b
:1034b000300007008e0990001b18b80089044000f6
:1034c0000a8548000a98a30008003a000402420056
:1034d00085824a0006034b0087834b0008044c009a
:1034e00089844c000a054d008d06e9008482720033
:1034f000850273004c3add00850272000100320043
:1035000015002000443ade001400b2004538de0009
:10351000cb45dd000b007000c540de00cb4ddd006b
:103520008b8070004549de00cb55dd000b0171003a
:10353000c551de000d037800cffe070003f0a100a7
:103540000cf0a70003f0a0000bff37001b18b80019
:103550008502400006834800e0834b0060044c0075
:10356000070037001b18b800060340008783480097
:10357000faff37001b18b800870340000884480092
:10358000e0844c0060054d00000006001b18b800e8
:103590000804400089844800faff37000108a300ae
:1035a000f2fe3a005800be005801be00e3ff3700ab
:1035b0000008a300edfe3a0009047800f9ff370087
:1035c00007f0a200c6fd37006022b8000602200006
:1035d0000000d0008180d2000482d2008582d20017
:1035e0000000a0000202520083825a000300310052
:1035f0000202420083824a000000a1000603e900a3
:10360000f3ff3a0000000600020ab900001bb900ef
:103610000200b80081004200810043000000060063
:10362000889fbe008a9fbe008c9fbe000404be001f
:103630000605be00809fbe00829fbe002f000700cf
:10364000040678000800be000a01be002b00070037
:10365000840678004f03be004f02be008d4f7600f7
:103660007fb0970013003300f0ff2f008b8f6b00ab
:1036700006003b000d0666000c00a7000a0037009c
:1036800007f0a600100020000a003700880f520043
:10369000898f5a008a0f5b008b8f5b000300390013
:1036a0001000200001003e000000200007f0a700ed
:1036b0000000ea004f06be004f05be004f04be00ea
:1036c00000000600e48240001078a30007003200ea
:1036d000640240001178a3003400be001401be0053
:1036e000040032000330a700000006003500be00d1
:1036f0001501be000330a0000000060005ff2700f2
:1037000005826100070032000428e1000100320058
:10371000240005000600070001003a0044000500ef
:103720000408050002000700f9ff3a001400050034
:103730006f82610081027000850271008502720053
:1037400000000600800078005002be005003be005a
:103750004439de00f700b200f37f2000030161006e
:10376000090032000218e10016003a0085017200db
:1037700083017300838173000008200015003a0064
:1037800040002000130037008501720083017300a0
:103790008381730005003a0004a8be0006a8be009d
:1037a000100020000b0037000201e9000402420073
:1037b00085824a0006034b0087834b000748a3001d
:1037c000f9ff32000740a00004a8be0006a8be0012
:1037d0002000200080009800920098000000060061
:020000040000fa
:1037e00070680000722500002e310000666a00003b
:1037f00000250000706800006625000030340000dd
:10380000646a000000250000706800007425000054
:1038100030320000646a0000004200006561000070
:10382000726900006e670000487900006472000051
:103830006f7000006f6e000069630000730000008d
:1038400020700000483400003835000020200000bf
:10385000562e0000312e00003020000020200000f5
:1038600000460000697200006d7700006172000080
:103870006520000076650000722e0000312e0000e9
:1038800030200000005500007064000061740000ea
:103890006520000020300000392f00003039000082
:1038a0002f31000037200000200000007048000089
:1038b000343d0000256400002070000048370000ff
:1038c0003d25000064000000414400004452000017
:1038d00045530000533d00002563000000700000c8
:1038e000484300006f65000066660000203d000050
:1038f000202500006600000070480000436f0000b3
:103900006d700000652000003d200000256600006d
:10391000007000004820000020200000203a000035
:1039200020250000322e000031660000202000001b
:10393000202000002e000000704800002020000021
:10394000202000003a200000253200002e31000027
:10395000662000002020000020200000005400000d
:10396000656d0000702e0000203a00002025000048
:103970003264000020250000634300002020000086
:1039800020000000202000002070000048200000df
:103990005365000074740000696e00006720000029
:1039a000202000000053000065740000706f0000cc
:1039b000696e0000742000003a200000252e0000ef
:1039c00031660000202000000053000065740000f4
:1039d000706f0000696e0000742000003a20000043
:1039e00020200000202000002000000020200000f7
:1039f00070480000204c00006f770000204c000051
:103a0000696d0000697400002020000000200000a3
:103a1000704800002048000069670000682000002e
:103a20004c6900006d690000742000002000000057
:103a30002020000070480000204800006967000056
:103a4000682000004c6900006d69000074200000cf
:103a5000002000002070000048200000446f00009b
:103a60007365000020540000696d000065200000af
:103a70002000000020540000696d00006520000057
:103a80003a20000025320000642000005365000049
:103a9000632000002000000020540000696d000039
:103aa000652000003a200000202000002053000084
:103ab000656300002000000020200000207000004e
:103ac00048200000496e0000746500007276000016
:103ad000616c0000202000000020000054690000fc
:103ae0006d650000203a00002025000032640000cf
:103af000204d0000696e00002e2000000020000014
:103b0000546900006d650000203a0000202000008c
:103b1000202000004d6900006e2e000020000000f3
:103b20002020000020700000482000003420000009
:103b300020430000616c00002e20000020200000c7
:103b40000020000020500000726500007373000028
:103b500020200000456e0000746500007220000007
:103b60002000000020540000696d00006520000066
:103b70004c650000667400002025000064200000f1
:103b800000200000202000007048000020370000c6
:103b900020200000436100006c2e00002020000067
:103ba000200000002020000020440000656200008a
:103bb00075670000676900006e6700002020000044
:103bc0002020000000410000444300003d2500008b
:103bd000312e000031660000202500003032000048
:103be000643a00002530000032640000202000000c
:103bf0002000000020700000482000004665000002
:103c000065640000206300006f7500006e740000a2
:103c1000202000000070000048200000446f0000d9
:103c2000776e00003a200000253000003464000068
:103c3000206d00006c00000020500000756d000039
:103c400070200000204f00007665000072690000bf
:103c500064650000202000000020000020500000cb
:103c60005553000048200000544f0000204f000032
:0c3c70004e20000020200000200000007a
:020000040000fa
:103c7c000200fa00004f780000982a003100200062
:103c8c00c90e0700dc82a900dca2a900e1168000a5
:103c9c00000f2000808060001e80fb004400de00ce
:103cac00004078000080fb0001007000e0168800e6
:103cbc00dc82a800dc82a900e1168000000f200045
:103ccc00808060001e80fb006f00600001007000af
:103cdc00e0168800dc82a800dc82a900004c2d00d4
:103cec0011002000b00e07000080fa000000060052
:103cfc000600fa0020479800314798004247980088
:103d0c00be4090004e40900080c040002e4090007d
:103d1c0000c04000684f40001e407800d4ff0700f0
:103d2c000080fa00000006000000fa0010c0b3008a
:103d3c00cfff07000080fa00000006000200fa0026
:103d4c00004f78001147980000982a00310020009d
:103d5c00950e0700dc82a900dca2a900e116800008
:103d6c00000f2000808060001e4090000080fb004f
:103d7c000001e9001e80fb000000e9004411dd0099
:103d8c0000014100c09b2000000041001040780061
:103d9c000080fb004400de00004078000080fb0047
:103dac0001007000e0168800dc82a800dc82a9000b
:103dbc00e1168000000f2000808060001e40900003
:103dcc000080fb000001e9001e80fb000000e90000
:103ddc004411dd0000014100c09b200000004100a7
:103dec00104078000080fb006f0060000100700044
:103dfc00e0168800dc82a800dc82a900004c2d00b3
:103e0c0011002000680e07000080fa000000060078
:103e1c000200fa00004f7800dca2a800e116800036
:103e2c00000f2000808060001e80fb004400de003c
:103e3c00004078000080fb0001007000e016880054
:103e4c00dc82a800dc82a900e1168000000f2000b3
:103e5c00808060001e80fb006f006000010070001d
:103e6c00e0168800dc82a800dc82a900004c2d0042
:103e7c00110020004c0e07000080fa000000060024
:103e8c000600fa00004f78001147980012079800be
:103e9c00230798009e4090001e407800a7ff070063
:103eac00130037002e00900010407800ae009000f8
:103ebc008100e80021079800d5ff07001e00900044
:103ecc008000eb006011b80004602300e5162000b0
:103edc006033b800b2f30700843e200005002000d8
:103eec006033b80045f307000000be002e0e07003b
:103efc002e009000104078000004e000e9ff3a002a
:103f0c000080fa00000006000000fa00d822ef0042
:103f1c0030c3b30056ff070020c3b30054ff0700a3
:103f2c0080c2b30052ff070010c0b30050ff07005f
:103f3c000041eb008040eb0040c0b3006cff070079
:103f4c000080fa00000006000600fa00881f7800c6
:103f5c00200798002e0090000000400020079800d9
:103f6c00ae00900000c02f00008f4000f0c7b300df
:103f7c0032e0b7001e0478001804ba001807980045
:103f8c001e0090004f0478000080fa00000006002c
:103f9c000600fa00889fbe001007980021079800c1
:103fac001e00900000004000100798009e0090003a
:103fbc0000c02f00008f4000f0c7b30032e0b70004
:103fcc00f0072000203b88009e007800113b880001
:103fdc0040042400003b880050052000303b880042
:103fec00a00a2000303b880061e7a8000000000018
:103ffc00013b800000002800008060000000e00011
:10400c00fbff3a0040002400003b88009e0478002f
:10401c002e049000880cbb0040002400003b88005c
:10402c0050052000303b8800a00a2000303b88005f
:10403c0061e7a80000000000013b800000002800a0
:10404c00008060000000e000fbff3a004f04be005f
:10405c000080fa00000006000000fa00e042a80010
:10406c00de42a8000080fa00000006000000fa0002
:10407c00de42a900e042a9000084230001002000d8
:10408c00c90d0700de42a800005a200001002000e4
:10409c00c50d070000178000640060000000e00000
:1040ac00020032000040eb000400370000842300c3
:1040bc0001002000bc0d070010c0b3000080fa0006
:1040cc00000006000400fa00204798000040eb00b6
:1040dc00004f78001a003700de42a900e042a90028
:1040ec008016200001002000af0d07002e4090002c
:1040fc000080fb0061006000004078000004e000dc
:10410c0002003200e042a80001003700e042a900a2
:10411c00005a200001002000a30d0700e042a80077
:10412c002e4090000080fb000000d100204798003a
:10413c00000f2000010020009b0d07001e4fe8001f
:10414c001e407800e74f5000e3ff36000080fa0075
:10415c00000006000200fa000040eb001047980037
:10416c001a0037001e80fb000000d100004f7800c1
:10417c00de42a900e042a9008016200001002000c8
:10418c00890d0700de42a8008007200001002000f6
:10419c00850d070000178000640060000000e0003f
:1041ac000300320000c8b3001e4f7000010037003e
:1041bc001e74a100005a2000010020007a0d070097
:1041cc001e4090000040e800104798001e409000f0
:1041dc00e74f5000e3ff36001e80fb000080fa0022
:1041ec00000006001400fa00881f78009fff0700eb
:1041fc000004e0001b003200c0ccb300b1ff07008c
:10420c0040c4b300afff070000b420000100200041
:10421c00650d070095ff0700c0ccb300a9ff070090
:10422c00e0cbb300a7ff07000040eb00004f780085
:10423c00070037001e84fb00c6ff070088004400ff
:10424c00810047008180e800800878001e4fe8005c
:10425c001e407800e84f5000f6ff36000e80e80054
:10426c00010037000000eb004f0478000080fa00da
:10427c00000006000200fa00889fbe000000eb0060
:10428c00000f7800700037001e007800800040009e
:10429c002080200000804000100078006101b800f0
:1042ac0000fd2f00f1ff2f0002004000838048002a
:1042bc009200200003002000820f5000838f5800d2
:1042cc005a003e0000600100090037000f00370063
:1042dc00160037001d003700240037002b00370074
:1042ec0032003700390037004000370047003700f4
:1042fc001e007800c200dd00c08e2000008140004e
:10430c006000b8000089be004e0037001e00780027
:10431c00c200dd00c08e20000081400000002000a3
:10432c0001f823000089be00460037001e0078000b
:10433c00c200dd00c08e2000008140000000200083
:10434c00010024000089be003e0037001e007800ea
:10435c00c200dd00c08e2000008140000000200063
:10436c00010424000089be00360037001e007800ce
:10437c00c200dd00c08e2000008140000000200043
:10438c00010824000089be002e0037001e007800b2
:10439c00c200dd00c08e2000008140000000200023
:1043ac00010a24000089be00260037001e00780098
:1043bc00c200dd00c08e2000008140000000200003
:1043cc00010c24000089be001e0037001e0078007e
:1043dc00c200dd00c08e20000081400000002000e3
:1043ec00010e24000089be00160037001e00780064
:1043fc00c200dd00c08e20000081400000002000c3
:10440c00011024000089be000e0037001e00780049
:10441c00c200dd00c08e20000081400000002000a2
:10442c00011124000089be00060037001e00780030
:10443c00c200dd00c08e2000008140006000b8008a
:10444c000089be001e0fe8001e007800e70f500028
:10445c008dff3400a8478000b9478000c04780001a
:10446c00d1478000d2cc2c00c3dc230016f107000e
:10447c000001be000800be00dcef0700a04d880064
:10448c00b14d88004f04be000080fa000000060009
:10449c00801f78000000fa00b04f80000000e000a0
:1044ac0003003200b04680000000e800b0468800ef
:1044bc00b0468000e50f500004003a00c046800072
:1044cc000000e800c046880007003700b0468000b6
:1044dc00ea0f500004003a00d628ef00a0468000f6
:1044ec000000e800a04688008460a9000080fa0063
:1044fc004f007800004006003600f800809fbe0098
:10450c00829fbe00849fbe00869fbe00889fbe0017
:10451c000000fa001209070000407800b8e9b70063
:10452c00b8c9bf00ea4f500010003200819b200038
:10453c009140780000c2b30080cf50000b003200d5
:10454c00d04d8000819b2000914078008100fb00c1
:10455c00000140002080200000004100010878008c
:10456c00d04d80000000e800d04d8800819b2000d9
:10457c0091407800a0c6b30080cf500003013a00f0
:10458c00ba29ef0011408000dcc9bf000000fb001d
:10459c00808f500023003a0021408000300520001d
:1045ac00808f50001f003a00304080000003b100a3
:1045bc008000eb006ff007000004be00404080005c
:1045cc000003b1008000eb006af00700d2cc2c0095
:1045dc00c3dc2300bcf007000001be000800be00d5
:1045ec0082ef0700f04e8800014f8800f04e8000eb
:1045fc00014f80000200200003122400b2f00700db
:10460c001df0070000007800800078000000eb002f
:10461c005ffe070000982a0031002000620c0700a2
:10462c00da00370011408000dcc9bf000000fb003d
:10463c00808f500023003a0021408000c0042000ed
:10464c00808f50001f003a00304080000003b10002
:10465c008000eb0047f007000004be0040408000e3
:10466c000003b1008000eb0042f00700d2cc2c001c
:10467c00c3dc230094f007000001be000800be005c
:10468c005aef0700104f8800214f8800104f800010
:10469c00214f800002002000832c24008af00700a8
:1046ac00f5ef070000007800800078001000200073
:1046bc0037fe070000982a00310020003a0c070052
:1046cc00b200370011408000dcc9bf000000fb00c5
:1046dc00808f500023003a0021408000800420008d
:1046ec00808f50001f003a00304080000003b10062
:1046fc008000eb001ff007000004be00404080006b
:10470c000003b1008000eb001af00700d2cc2c00a3
:10471c00c3dc23006cf007000001be000800be00e3
:10472c0032ef0700304f8800414f8800304f800037
:10473c00414f800002002000832c240062f007000f
:10474c00cdef0700000078008000780020002000ea
:10475c000ffe070000982a0031002000120c070001
:10476c008a00370011408000dcc9bf000000fb004c
:10477c00808f500013003a0021408000400420003c
:10478c00808f50000f003a00304080006a00b90062
:10479c008000780040408000008040000021b10083
:1047ac00d0468800d0468000800078005000200061
:1047bc00f7fd070000982a0031002000fa0b0700d3
:1047cc007200370011408000dcc9bf000000fb0004
:1047dc00808f500013003a0021408000900420008c
:1047ec00808f50000f003a00304080006a00b90002
:1047fc008000780040408000008040000021b10023
:10480c00b04f8800b04f800080007800600020001e
:10481c00dffd070000982a0031002000e20b0700a2
:10482c005a00370011408000dcc9bf000000fb00bb
:10483c00808f500018003a00214080002005200095
:10484c00808f500014003a00da22a800000000000b
:10485c00d20707000004e000fdff3a00604680002c
:10486c0071468000809fbe0000bf2900801f780029
:10487c0040842000f6f10700e687570040842000b2
:10488c000a08070000d02d00d1062000c60b070037
:10489c00da22a9003d00370011408000dcc9bf00be
:1048ac000000fb00808f50001a003a00214080006d
:1048bc0060042000808f500016003a00da22a80015
:1048cc0000000000b50707000004e000fdff3a00ff
:1048dc00b0448000c144800067ef070000007800fe
:1048ec00801f780090bf2900801f78004084200032
:1048fc00d7f10700e487570040842000eb0707003e
:10490c0000d02d00d1062000a70b0700da22a90049
:10491c001e00370011408000dcc9bf000000fb0006
:10492c00808f500019003a00214080004005200083
:10493c00808f500015003a00da22a8000000000019
:10494c00960707000004e000fdff3a00b04380002a
:10495c00c143800048ef070000007800801f7800fa
:10496c0030c02900801f780040842000b8f1070077
:10497c00e487570040842000cc07070000d02d00ae
:10498c00d1062000880b0700da22a9008520a90097
:10499c000080fa004f04be004f03be004f02be0061
:1049ac004f01be004f00be003600f900004006006b
:1049bc000000fa0005e1a9000421a90004c1a90026
:1049cc00200880000040a1000050a00020088800b2
:1049dc00200880000040a0000050a00020088800a3
:1049ec000021ef0010ce220010088800a0048000e7
:1049fc0000c0a00000d0a10000e0a100a00488002d
:104a0c008460a9008c60a80005e1a8000080fa0071
:104a1c00000006000000fa00d428ef00d228ef00b6
:104a2c000021ef000080fa00000006000c00fa00e4
:104a3c00a1e2a90000fe2f00000f78001e007800f4
:104a4c004d0b070070ff2f00f60a0700e0ff2f0048
:104a5c0010079800f0c32f0020079800101c2e00a0
:104a6c0030079800c0cf200040079800f0c12d00ff
:104a7c00500798002e0290009e0190003e0190007d
:104a8c00ce0090005e009000090b07000080fa0039
:104a9c00000006000600fa006000b800100798003d
:104aac002107980010002000000f78000d0037003f
:104abc00a022a800fa0a07000040eb00240b070014
:104acc008000eb002bef07000001be001e009000e1
:104adc00ae00900045ee07001007980021079800e3
:104aec001e0fe800007122009e007800808f50009d
:104afc00efff340002002400c36124001e0090006c
:104b0c00ae00900096ee0700504488006144880087
:104b1c005444800065448000d0448000e14480000f
:104b2c000001be000400be0067ef07000002be00db
:104b3c0080448000914480000001be000400be004f
:104b4c002aee0700d0438800e1438800d043800060
:104b5c00e143800060468800714688000080fa00be
:104b6c00000006000000fa002621ef00803820002b
:104b7c0040098800100980000080a0000090a0006f
:104b8c0000a0a000100988002241a90022e1a90080
:104b9c000080fa00000006000000fa00881f780070
:104bac00d0438000e143800018c0b3006011b8000e
:104bbc00afee07000000e00001003c000044eb00f9
:104bcc000804e0000c003200d0438000e143800078
:104bdc0018c0b30002002000f3372400a2ee070037
:104bec000000e000010035000044eb000804e00088
:104bfc0001003200d602a9004f0478000080fa00b0
:104c0c00000006000000fa00881f7800d0438000e6
:104c1c00e143800018c0b3006011b80094ee0700a7
:104c2c000000e00001003c000044eb000804e00040
:104c3c000c003200d0438000e143800018c0b30068
:104c4c0002002000f337240087ee07000000e0008c
:104c5c00010035000044eb000804e00001003200c4
:104c6c00d602a8004f0478000080fa00000006006d
:104c7c000000fa00889fbe008a1f7800d043800095
:104c8c00e143800002002000031224000eef070015
:104c9c000004be00f04e8000014f80000200200096
:104cac000312240008ef07000001be000800be003c
:104cbc006dee07000000e00004003a001000200038
:104ccc00a0448800d602a9004b003700d0438000d6
:104cdc00e14380000200200003122400faee0700da
:104cec000004be00f04e8000014f80000200200046
:104cfc0003122400f4ee07001ac0b3000001be003a
:104d0c000800be005aee07000000e00001003c0065
:104d1c000045eb000a04e00006003200a0448000cd
:104d2c000000e00003003a00d602a8009428ef002f
:104d3c0031003700d0438000e143800002002000a6
:104d4c0003122400e0ee07000004be00304f800088
:104d5c00414f80000200200003122400daee07000d
:104d6c001ac0b3000001be000800be0040ee0700f0
:104d7c000000e00001003c000045eb000a04e000ec
:104d8c0006003200a0448000e10f500003003a00fe
:104d9c00d602a8009428ef0017003700d0438000fb
:104dac00e14380000200200003122400c6ee07003d
:104dbc000004be00104f8000214f80000200200034
:104dcc0003122400c0ee07001ac0b3000001be009d
:104ddc000800be0024ee07000000e00001003400d3
:104dec000045eb000a04e00003003200d602a900e3
:104dfc0010002000a04488004f0578004f04be002e
:104e0c000080fa00000006000a00fa00889fbe002d
:104e1c008a1f78000080eb0040158800d202a900a0
:104e2c00c662a800c682a800c6a2a80036fc07006d
:104e3c00bdfb0700fdfe07004aff07000006070048
:104e4c00d822a900da22a900d228ef00d428ef003a
:104e5c00d628ef001000200020079800300020001a
:104e6c00d04688000000eb0037fc07008000eb0008
:104e7c0040ee0700f04e8800014f8800f04e800095
:104e8c00014f80000200200003122400b4ed070043
:104e9c00f04e8800014f880000982a003100200055
:104eac00410a07001000200027fc07008000eb00df
:104ebc0030ee0700104f8800214f8800104f800003
:104ecc00214f800002002000832c2400a4ed070059
:104edc00104f8800214f880000982a0031002000d4
:104eec00310a07002000200017fc07008000eb00af
:104efc0020ee0700304f8800414f8800304f800073
:104f0c00414f800002002000832c240094ed070008
:104f1c00304f8800414f880000982a003100200053
:104f2c00210a07003000200007fc070030438800ee
:104f3c0000982a00310020001b0a070040002000c6
:104f4c0001fc07004043880000982a003100200033
:104f5c00150a070050002000fbfb0700d046880014
:104f6c0000982a00310020000f0a07006000200082
:104f7c00f5fb0700b04f880000982a003100200094
:104f8c00090a070030438000e10f400002003a009c
:104f9c00702420003043880040438000e10f400023
:104fac0002003a00201f200040438800414380004b
:104fbc003043800000805000cf80de00eaed070017
:104fcc000001be00000020000104240064ed070075
:104fdc00d0448800e144880030438000cf80de005c
:104fec00e1ed07000002be00d0448000e1448000e7
:104ffc000001be000400be0033ee07000001be003d
:10500c000000200001082400f7ec07008044880011
:10501c0091448800d04680000000e00002003c0073
:10502c0050002000d0468800e04680000000e000e0
:10503c0002003c0050002000e046880032012000b5
:10504c00d1c0290040832000faef070040832000e4
:10505c00800178000001eb0011c0b30010c0b30058
:10506c0087fb07001201200001c2290040832000a9
:10507c00f0ef070040832000800178000001eb0076
:10508c0021c0b30010c0b3007dfb070000c0260098
:10509c00c12d2000c40907002201200011c32900e2
:1050ac0040832000e3ef070040832000800178005c
:1050bc000001eb0011c0b30010c0b30070fb07007f
:1050cc003201200031c4290040832000d9ef0700b1
:1050dc0040832000800178000001eb0021c0b30068
:1050ec0010c0b30066fb070000602300e11620002f
:1050fc00ad0907004143800030438000811f7800d8
:10510c00801f780060c52900801f78004083200034
:10511c00cfef0700e687570040832000800178001e
:10512c000001eb0011c0b30010c0b30054fb07002a
:10513c00dcc9bf000000fb00801f780040c62900be
:10514c00801f780040832000c1ef0700e4875700e0
:10515c0040832000800178000001eb0021c0b300e7
:10516c0010c0b30046fb070000602300e1162000ce
:10517c008d090700d0448000e1448000809fbe0070
:10518c00f0c62900801f780040832000b0ef070094
:10519c00e687570040832000800178000001eb0077
:1051ac0011c0b30010c0b30035fb07008044800071
:1051bc0091448000809fbe00c0c72900801f7800ea
:1051cc0040832000a2ef0700e687570040832000b1
:1051dc00800178000001eb0021c0b30010c0b300c7
:1051ec0027fb070000c02600c12d20006e09070018
:1051fc00effd070098fb07000000eb00300798005c
:10520c000100370000000000da22a900b044800041
:10521c00c144800018c0b30002c02300c361240045
:10522c0013ed07000000e00001003c000044eb001f
:10523c000804e000030032006000b800b0448800ad
:10524c00c144880013fe0700e6fb070040079800e6
:10525c004e0090000080e80010007800c800dd00cf
:10526c004e00900010007800008040004400de00ea
:10527c008000eb003fed0700b0438800c14388007d
:10528c00b0438000c143800018c0b300020020006e
:10529c00632c2400f6ec07000000e00001003c0049
:1052ac000044eb000804e000030032006000b8008a
:1052bc00b0438800c1438800a1468000b0032000a1
:1052cc00808f500004003400d428ef0090468000fa
:1052dc000000e8009046880091468000b003200052
:1052ec00808f500002003400d428ef00d228ef0049
:1052fc0091468000b04f8000808f500004003a002f
:10530c00a04680000000e00001003a0058fe0700b3
:10531c0091468000b04f8000808f500015003a00fd
:10532c00a1468000d0468000808f500011003a00ca
:10533c00d602a900d428ef00d228ef00d046800076
:10534c00cf80de0008ed0700e27a24005310240021
:10535c005ded07000002be00b0448000c144800037
:10536c000001be000400be0020ec0700b044880021
:10537c00c14488003009800030098000e30f5000e0
:10538c002d003e00a0468000610060000000e0009f
:10539c0009003a006046800071468000809fbe0084
:1053ac0090c82900801f78004083200028ef070058
:1053bc00e687570008003700604680007146800081
:1053cc00809fbe00c0c92900801f78004083200048
:1053dc001fef0700e687570040832000800178000c
:1053ec000001eb0011c0b30010c0b300a4fa070019
:1053fc00b0438000c14380009fec070000007800a0
:10540c00f10d2000811f7800801f7800f0ca290060
:10541c00801f7800408320000def0700e6875700bf
:10542c0040832000800178000001eb0021c0b30014
:10543c0010c0b30092fa070030098000e30f50004f
:10544c00ae00360030098000e70f5000ab003e0084
:10545c001201200021cc290040832000f5ee07002a
:10546c0040832000800178000001eb0011c0b300e4
:10547c0010c0b30082fa0700f04e8000014f80008c
:10548c00809fbe0030cd2900801f78004083200013
:10549c00efee0700e687570040832000800178007c
:1054ac000001eb0021c0b30010c0b30074fa070078
:1054bc0040168000680060000000e0008f003a0099
:1054cc0000d82800b1052000b7080700f04e800076
:1054dc00014f80000200200003222400faec070098
:1054ec0086ec070000007800300988006500370062
:1054fc00300980008000eb009eec070002002000c9
:10550c000322240016ec0700f04e8800014f88009f
:10551c0031098000b00d2000808f500002003e0049
:10552c00c00d2000300988003109800000192000ce
:10553c00808f5000020036000019200030098800ce
:10554c00f04e8000014f800018c0b3000200200014
:10555c00030b240044ec07000000e00001003400c1
:10556c000044eb000804e0000500320000002000bd
:10557c00010b2400f04e8800014f88000f0037000b
:10558c00f04e8000014f800018c0b30002002000d4
:10559c000312240036ec07000000e00001003d007f
:1055ac000044eb000804e00004003200000020007e
:1055bc0001122400f04e8800014f8800b046800094
:1055cc0061006000004078000004e0001900320027
:1055dc001201200021cc29004083200095ee070009
:1055ec0040832000800178000001eb0011c0b30063
:1055fc0010c0b30022fa0700f04e8000014f80006b
:10560c00809fbe0030cd2900801f78004083200091
:10561c008fee0700e687570040832000800178005a
:10562c000001eb0021c0b30010c0b30014fa070056
:10563c00140037001201200021cc290040832000e7
:10564c007cee070040832000800178000001eb0015
:10565c0011c0b30010c0b30009fa070012012000fa
:10566c0051ce29004083200072ee070040832000b9
:10567c00800178000001eb0021c0b30010c0b30022
:10568c00fff9070040168000680060000000e00091
:10569c0097ff3a00f04e8000014f8000020020007e
:1056ac000312240088ec0700f3eb070000007800dd
:1056bc00800078000000eb0035fa070000982a0003
:1056cc003100200038080700f04e8000014f8000a8
:1056dc0002002000031224007bec0700e6eb07001d
:1056ec0000007800800078000000eb0028fa07002a
:1056fc0000982a00310020002b0807003009800098
:10570c00e70f5000cb00360030098000eb0f500043
:10571c00c8003e001201200061cf29004083200008
:10572c0044ee070040832000800178000001eb006c
:10573c0011c0b30010c0b300d1f90700104f8000a6
:10574c00214f8000809fbe0030cd2900801f780043
:10575c00408320003eee0700e68757004083200080
:10576c00800178000001eb0021c0b30010c0b30031
:10577c00c3f9070040168000680060000000e000dc
:10578c00ac003a0000d82800b1052000060807003c
:10579c00104f8000214f80000200200003222400c3
:1057ac0049ec0700d5eb07000000780030098800b1
:1057bc0082003700300980008000eb00edeb070021
:1057cc00020020000322240065eb0700104f880024
:1057dc00214f880031098000b00d2000808f5000cf
:1057ec0002003e00c00d2000300988003009800006
:1057fc008000eb00dfeb07000004be00f04e8000e1
:10580c00014f800002002000032224002eec070030
:10581c001ac0b3000001be000800be0094eb0700e4
:10582c000000e00001003c000045eb000a04e00031
:10583c0008003200f04e8000014f80000200200072
:10584c000322240020ec0700aceb070000007800da
:10585c0030098800104f8000214f800018c0b30021
:10586c0002002000030b24007feb07000000e00087
:10587c00010034000044eb000804e0000500320095
:10588c0000002000010b2400104f8800214f8800dd
:10589c0014003700144f8000254f8000f04e80001c
:1058ac00014f800018c0b3000001be000400be0010
:1058bc006feb07000000e00001003d000044eb002e
:1058cc000804e00007003200f04e8000014f800019
:1058dc00d2cc2c00c3dc2300c3ea0700104f880095
:1058ec00214f8800b04680006100600000407800c5
:1058fc000004e000190032001201200061cf2900e1
:10590c0040832000cbed070040832000800178000d
:10591c000001eb0011c0b30010c0b30058f9070030
:10592c00104f8000214f8000809fbe0030cd290099
:10593c00801f780040832000c5ed0700e6875700e4
:10594c0040832000800178000001eb0021c0b300ef
:10595c0010c0b3004af907001800370012012000ec
:10596c0061cf290040832000b2ed07004083200066
:10597c00800178000001eb0011c0b30010c0b3002f
:10598c003ff90700104f8000214f8000809fbe0020
:10599c0050ce2900801f780040832000aced07001a
:1059ac00e687570040832000800178000001eb005f
:1059bc0021c0b30010c0b30031f9070040168000bd
:1059cc00680060000000e0007aff3a00104f800091
:1059dc00214f800002002000832c2400baeb07002a
:1059ec0025eb0700000078008000780010002000f4
:1059fc0067f9070000982a00310020006a070700a9
:105a0c00104f8000214f800002002000832c2400c6
:105a1c00adeb070018eb0700000078008000780061
:105a2c00100020005af9070000982a0031002000cd
:105a3c005d07070030098000eb0f5000cb003600eb
:105a4c0030098000ef0f5000c8003e00120120000a
:105a5c0071d029004083200076ed070040832000a0
:105a6c00800178000001eb0011c0b30010c0b3003e
:105a7c0003f90700304f8000414f8000809fbe002b
:105a8c0030cd2900801f78004083200070ed070086
:105a9c00e687570040832000800178000001eb006e
:105aac0021c0b30010c0b300f5f807004016800009
