:020000040000fa
:080000000001040000000000f3
:020000040000fa
:100008009a0100009a0100009a0100009a0100007c
:100018009a0100009a0100009a0100009a0100006c
:100028009a0100009a0100009a0100001c210000ba
:100038009a0100009a0100009a0100009a0100004c
:100048009a0100009a0100009a0100009a0100003c
:100058009a0100009a0100009a0100009a0100002c
:100068009a0100009a0100009a0100009a0100001c
:100078009a0100009a0100009a0100009a0100000c
:100088009a0100009a0100009a0100009a010000fc
:100098009a0100009a0100009a0100009a010000ec
:1000a8009a0100009a0100009a0100009a010000dc
:1000b8009a0100009a0100009a0100009a010000cc
:1000c8009a0100009a0100009a0100009a010000bc
:1000d8009a0100009a0100009a0100009a010000ac
:1000e8009a0100009a0100009a0100009a0100009c
:0800f8009a0100009a010000ca
:020000040000fa
:100108009a0100009a0100009a0100009a0100007b
:100118009a0100009a0100009a0100009a0100006b
:100128009a0100009a0100009a0100001c210000b9
:100138009a0100009a0100009a0100009a0100004b
:100148009a0100009a0100009a0100009a0100003b
:100158009a0100009a0100009a0100009a0100002b
:100168009a0100009a0100009a0100009a0100001b
:100178009a0100009a0100009a0100009a0100000b
:100188009a0100009a0100009a0100009a010000fb
:100198009a0100009a0100009a0100009a010000eb
:1001a8009a0100009a0100009a0100009a010000db
:1001b8009a0100009a0100009a0100009a010000cb
:1001c8009a0100009a0100009a0100009a010000bb
:1001d8009a0100009a0100009a0100009a010000ab
:1001e8009a0100009a0100009a0100009a0100009b
:0801f8009a0100009a010000c9
:020000040000fa
:10020000efb520000eff20000e0188000000000066
:10021000000020000000e000020032000001200089
:10022000200288000c000700006923000100200064
:1002300011000700000020000000e0000200320072
:100240000000020000000000e8230200000000009f
:100250000040da000000fe004440a900a022200077
:100260000000e0000300320000002000a001880030
:100270004440a8000000060091018800800078003a
:100280000000eb0015003700e280400032a0b4000f
:100290009101ba00e280400032a0b4009102ba009d
:1002a000e280400032a0b4000002eb00472bde00e9
:1002b000f507b200602ce10004003a000059eb00a1
:1002c0008301e900fdff3e00040037006128e100e2
:1002d000010032000082eb00040007001101ba00a7
:1002e0000200e000e8ff3a00000006003159ba00c1
:1002f0008301e9000c0032002159ba008301e900b2
:10030000080032000400e00003003a00e2804000f0
:1003100032a0b400f5ff370011d9ba008301e9001b
:10032000faff3a008100e800e180400032a0b4000a
:10033000000006000040da000000fe000a00fa009b
:10034000e20f500020003e00e05a8000e10f500014
:1003500006003200e0212000a5212000832120009a
:10036000642120000000e00004003a004021200049
:1003700005212000e3202000c420200006002800e2
:100380001403630003003a00060878000000280008
:10039000140a700013a8a30001003a0013a0a000e3
:1003a00002007800050037001388a300feff32002a
:1003b0003102fb00840a78000000e9000000e00040
:1003c000f9ff3a000800370033002000b3bf9f0058
:1003d000c0bf9f00d1bf9f00e2bf9f006a8057004f
:1003e0003d0a07006fb99700020078000080fa000c
:1003f0000000060003f0a200889fbe008a9fbe0096
:100400008c1f78001b010700220133006450e100bb
:100410004f0032006420e1005200320003826c0081
:1004200007003b000905d0000306d000820f5400ee
:100430000c065d00020039000200320089017800dc
:10044000030678008582550004003d000003fd008e
:100450008103fd008502ea008b854200840f720053
:1004600002003b0060001000e08018006011b8003e
:100470000005eb007a28e1000a0039000600780048
:10048000c75ddd00f707b200878075002d003700db
:10049000828171000a017800610560008180d100cd
:1004a0000080d3008502e900f9ff3b00060440000c
:1004b0008784480002003b0060041400e0841c00b4
:1004c0000988a300070032008a81710082817100cf
:1004d000610164008904d1000884d3008b05e80021
:1004e000170037000978a30013003a000b00e00062
:1004f000130034008b05e9000804440089844c0093
:100500000a4474000978a3000d003a000b00e000d3
:10051000070034008b05e9000804440089844c007e
:1005200001003a000b0020000978a300f7ff320019
:100530000001eb0002003700828171000a0178009f
:10054000910007000cf0a70001f0a000da003700ce
:100550006420e10002003a00838f6c00da0033006f
:100560000801be000200be00d3003700889fbe0015
:100570008a9fbe008c1f7800be000700c5003300b4
:1005800003866c006450e1002e0032006420e1001c
:10059000330032006150e1002f0032006120e100a1
:1005a0003100320085855500eb07b00009002000be
:1005b00008042000050037000804440089844c002a
:1005c0000a0031000603430087834b0000015300fb
:1005d00081815b00f8ff33000203be000800a00029
:1005e0000804440089844c00f6ff3900c639dd0058
:1005f0008301730001003200130020008904d10040
:100600000884d3000998a300050032000800a70061
:100610000300a0008904d1000884d3008b05e80002
:100620008904d1000884d3000001eb000281d200cc
:100630005500070001f0a1000cf0a70001f0a00098
:100640009d0037006420e1009f0032000801be00d9
:100650000200be00f7ff37006120e1009a0032007f
:100660006000b800f3ff37000000200001f8270009
:10067000f0ff370014002000f5013700f4ff2f00d1
:10068000f30137000001be00650007000470a700f9
:1006900003f0a1006509b100160032000d0035001d
:1006a0006828e10006003500f0ff2f00f1ff270069
:1006b0000300e00013003b000100280000000500db
:1006c00000004000818048008502e900fcff3a00fc
:1006d00008003700f88f420002003c008000eb0069
:1006e000000005008100d1000080d3008502e800f1
:1006f000fcff3a000300e00002003b006000100035
:10070000e0801800000006000001be004400070061
:100710000470a70003f0a10003f8a30013003a003f
:100720006509b10010003200090035006928e100b8
:100730000200350001002800000005000000400014
:10074000818048008502e900fcff3a0000000600b5
:10075000f88f4200050035008100d1000080d300f1
:100760008502e800fcff3a00000006008000eb0074
:10077000000005004f89de0082017800cf013700bc
:100780006011b800dd013700810020006180550054
:100790000b003d000b00200061fe2f000100e10076
:1007a0001d00340082817100610164008904d10060
:1007b0000884d3000000e800faff3a00710020002e
:1007c0006100640003007000020060000900320054
:1007d00061044400e0844c000988a5000500320053
:1007e0008b05e8006808e10002003a008904d100a6
:1007f0000884d300f20f20000258e10005003d00fc
:10080000c75ddd00f907b200898075000800780037
:10081000000006000bf827008b00780000000500a0
:10082000c70ade00f107b200f50fb200080032007f
:10083000e1cf4200020032000170a0002400050058
:10084000810f70000100320004080500440005001b
:10085000810f700002003a00140005008502e900d3
:100860000000400081c04800fcff3b000170a00078
:10087000240005000004be00e9ff07000003be00dd
:100880000405be000200be00e5ff0700844f7500ae
:10089000000006000200be006450e10005003600c2
:1008a0006420e100020036000968a30001003a005c
:1008b0000800be000160a0004f0678004f05be0092
:1008c0004f04be0000000600f0ff2f00f1ff2700dc
:1008d000f9ff3700889fbe008a9fbe008c1f7800fa
:1008e000e4ff0700ebff330003866c006450e10077
:1008f000240032006420e100270032006150e10052
:10090000220032006120e100210032008b8542008c
:10091000eb07b1000134b800003ab8000804420007
:1009200089844a00013ab8000030b800888040004d
:1009300009014a00040033000000400081804800a3
:10094000020149008b05e900c909dd00830170003f
:100950000100320013002000c814de004814dd003e
:100960004709de001200b200c808de0008847000eb
:1009700085ff070001f0a1000cf0a70001f0a00026
:10098000cdff37006120e100cfff32000801be003b
:100990000200be00f7ff37006150e100fcff3a00a3
:1009a000c9ff3700889fbe008a9fbe003004420006
:1009b000b0844a0030054b0090854b006000b100c8
:1009c0000898be000a90be000440e10005c8e1009e
:1009d00006d0e10007d8e1000200310068004000c5
:1009e0001008e8004f05be004f04be0000000600de
:1009f000889fbe008a9fbe003004be002005be0056
:100a00000418540005985c0006185d0007985d0006
:100a1000110020000440e10005c8e10006d0e1001b
:100a200007d8e100010039008000eb0010881000b9
:100a30004f05be004f04be00000006001200fa0081
:100a4000889fbe008a9fbe008c9fbe00e0b79f00bb
:100a5000f1b79f0082bf9f0093bf9f000605be00b5
:100a60000404be000000eb00d0b79f00c0b79f0099
:100a7000b0b79f00a0b79f0090b79f000006eb00a3
:100a80005fb19700cfb09700820141003fb097005f
:100a90000200e00004003d00370007007e805700a0
:100aa000c0ff070003003700330007007e805700b7
:100ab000cfff0700dfb697000d00e0000c00350007
:100ac0006fb29700ffb297000fbb97009fbb9700d4
:100ad00010002000010020006011b8000002720028
:100ae0008182720002037300838373001b0007007e
:100af0000c06e80001042000810f5600e0ff3a00d8
:100b00000d00e00004003d000802be000a03be0024
:100b10007e805700a3ff07005fa897000000e00059
:100b200005003a001fb29700afb297003fb397009d
:100b3000cfb39700090007006fb09700ffb0970090
:100b40000fb997009fb997004f06be004f05be0032
:100b50004f04be000080fa000000060001000700fc
:100b600000000600a4b79f00b5b79f00c6b79f005e
:100b7000d7b79f00000006004f09de008281710098
:100b8000b3b79f004f01de0081804000828070007b
:100b9000a1b79f008fb097004f09de000000400012
:100ba0000200700090b79f007fa897004f01de0001
:100bb000818040008280700081b79f000d00070097
:100bc0004f3ade000000400004007000f0af9f00cc
:100bd000080007000402420085824a0006034b0019
:100be00087834b00dfff07000802be000a03be0038
:100bf000000006002fb29700bfb297004fb39700d6
:100c0000dfb3970000000600881f7800180020005e
:100c1000881f780089ff07008f87e9004f0478005c
:100c200000000600801feb0084ff07008f87e900ab
:100c300000000600889fbe008a9fbe00e00f5000a3
:100c4000e08f5800e00f5900e08f59000c003d0084
:100c50006044b8006055b8000000540081805c001a
:100c600002015d0083815d0018002000150007006f
:100c700008003d00180007000004eb0005003700e5
:100c80000004eb000f00070002003d001200070007
:100c900018002000dcff07000800e000060032001a
:100ca0006022b8006033b8000000520081805a0012
:100cb00002015b0083815b004f05be004f04be0054
:100cc00000000600e00f5200e08f5a00e00f5b00ca
:100cd000e08f5b00000006006044b8006055b8007b
:100ce0000402540085825c0006035d0087835d007a
:100cf00000000600889fbe008a9fbe008c1f7800ff
:100d0000e00f5000e08f5800e00f5900e08f5900cd
:100d10000d003d006044b8006055b800000054006c
:100d200081805c0002015d0083815d001c00200069
:100d30000820e10009a8e1000ab0e1000bb8e100d9
:100d40000d003d00080037000006eb00e00f5200e8
:100d5000e08f5a00e00f5b00e08f5b0006003d0073
:100d60006044b8006055b8000402540085825c00fd
:100d700006035d0087835d00aaff07000c00e0000a
:100d8000060032006022b8006033b8000000520054
:100d900081805a0002015b0083815b004f0678006e
:100da0004f05be004f04be0000000600889fbe0035
:100db0008a9fbe008c1f78000006eb00e00f5000f9
:100dc000e08f5800e00f5900e08f590007003d0008
:100dd0006044b8006055b8000000540081805c0099
:100de00002015d0083815d001c002000e00f5200c5
:100df000e08f5a00e00f5b00e08f5b0007003d00d2
:100e00006044b8006055b8000402540085825c005c
:100e100006035d0087835d000c00a20066000700ea
:100e20000c00e000060032006022b8006033b80019
:100e30000000520081805a0002015b0083815b0048
:100e40004f0678004f05be004f04be0000000600ac
:100e5000889fbe008a9fbe00841f780085fe070021
:100e60004f00780011003300f0ff2f00838f6c00db
:100e700006003b00040565000a00a70008003700d3
:100e800009f0a6001000200008003700820f54006f
:100e9000838f5c00030039001000200001003e0039
:100ea0000000200009f0a7000000ea004f05be0086
:100eb0004f04be000000e00000000600881f78001c
:100ec000030478000300e00007003d00600010000c
:100ed000e080180060011900e081190002003b0069
:100ee00001f02d00030037000400070008f0a70000
:100ef00001f0a0004f04780000000600889fbe00ab
:100f00008a9fbe000082700004027100048271009a
:100f1000260032000004be000200be006011b800ce
:100f20006b092000950220000182cf000a003900e1
:100f30000541b1000082cf00070039000541b10032
:100f40000982cf00040039000541b1000882cf00ba
:100f5000010039000541b100054252001200320083
:100f60000a003b0082817100610164008100d100b0
:100f70000080d3008984d3000884d3008b05e80067
:100f80000442e800f7ff3a00070037000804440075
:100f900089844c0000004800818048008b05e900ee
:100fa0000442e900f9ff3a00f7fd07004f05be00d3
:100fb0004f04be0000000600889fbe008a9fbe004e
:100fc0008c9fbe000404b8000506b80089044600e2
:100fd00060854e000606b8000a054600e0854e0012
:100fe0000706b8008b054600040eb80089044600c9
:100ff0000a854e00e0854d00050eb8000a05460042
:101000008b854e00060eb8008b0546000416b8000e
:101010000a0546008b854e000516b8008b05460074
:10102000041eb8008b0546000800be000a01be0081
:101030004f06be004f05be004f04be000000060074
:101040008001780002003700b15978000201e90000
:101050000200e000fcff3a00000006000c00fa006d
:10106000889fbe0000047800f0ff2700d0bf9f00db
:101070008004eb0099bf9f0088bf9f00a8bf9f001e
:10108000200c2000b0bf9f0078815700cfb09700a0
:1010900070805700cf0007000fb89700094878000c
:1010a0008fb89700088050004f04be000080fa00ff
:1010b000000006000800fa00889fbe008a9fbe005c
:1010c0000084fb00d1c6b300814f500034003600cd
:1010d0004b062000110009000b84d8008105780020
:1010e000720040004300dd00699b20000080440046
:1010f0006022b8000600200007fe23005001be0059
:101100004000be00b90807000002be000203be0096
:1011100084bf9f0095bf9f00a6bf9f00b7bf9f00e1
:10112000aa002000110009008a85d80080057800f7
:10113000e9854500c35ddd008b8544003b02be00b0
:101140002b03be000fb897009fb897002fb99700e8
:10115000bfb99700a50807000002be000203be0049
:1011600084bf9f0095bf9f00a6bf9f00b7bf9f0091
:10117000110009000a84d800010478004344dd000e
:10118000888444003902be002903be000fb89700ce
:101190009fb897002fb99700bfb997001d0037007f
:1011a000ea4f500013003600aa0020001100090089
:1011b0000a84d80001057800690440004344dd003a
:1011c000699b2000088444006022b80006002000cb
:1011d00007fe23003800be002801be008308070078
:1011e0004355dd008a8444003902be002903be0055
:1011f000080037004344dd00609b200008044000e5
:101200006022b8000600200007fe23003800be0060
:101210002801be00750807004f05be004f04be0040
:101220000080fa00000006000800fa00889fbe0057
:101230008a9fbe00d1c6b3000004e00023003d0039
:101240000040ea000004fb00814f50000a00340017
:1012500042062000110009000204d800a900200065
:10126000110009008900d800e9004000c308dd0032
:101270006a9b200021003700ea4f50001000340024
:10128000a2002000110009000204d800010178002a
:10129000690040004300dd00619b200000804000a9
:1012a0004311dd00828040003102be002103be00f8
:1012b0005001be004000be004c0807003800370057
:1012c0004344dd00609b2000320037000004fb0037
:1012d000814f500023003400420620001100090015
:1012e0000204d800a9002000110009008900d800dc
:1012f000e9004000c308dd006a902000810045003d
:101300003102be002103be008b0920008a85450002
:101310003b00be002b01be00340807000002be00e7
:101320000203be0084bf9f0095bf9f00a6bf9f0021
:10133000b7bf9f00110009000904d800010478001c
:101340004344dd00080545003a02be002a03be0002
:101350000fb897009fb897002fb99700bfb99700b3
:10136000d5ff3700ea4f500008003400a2002000eb
:10137000110009000204d800010178006900400052
:101380004300dd0061902000c4ff37004344dd00ce
:1013900060902000080440003800be002801be0014
:1013a0004f05be004f04be000080fa00000006009a
:1013b000d0019000028151004240a9000300340096
:1013c00010017800014978000208e8000100780067
:1013d000000006002f04b000889fbe008a9fbe0058
:1013e0008c9fbe008e1f780000067800e19f9f0052
:1013f00082af9f006000b8006011b80080a79f0016
:1014000091a79f00a2a79f00b3a79f008006eb00b3
:10141000a3053700ef9897008100e800e19f9f0047
:1014200051c2b300814f500003003a006f999700fa
:101430000007eb0011003700bc0090000000fb002b
:101440000168a300070032000d01780080007800d9
:101450000c007800d6ff07000000e00005003a000d
:101460008f0537008c00780099050700e10f4000d8
:101470008b0532008d06e8008905370002007800f0
:10148000b2407800d3c2b30083cf50000c003200ca
:1014900007003c00edc1510083cf50000a0032002c
:1014a000ebc1410083cf50000d003a000800370027
:1014b00003c3b30083cf500009003a000600370091
:1014c0000e30a000edff37000e00a000ebff37004c
:1014d0000e10a000e9ff37000e20a000e7ff370044
:1014e0000e18a300010032000e00a1000e38a30068
:1014f000010032000e20a1000101fb000203b10037
:10150000e90f51000e003e00800078000001eb0062
:1015100092b79f006a11b9003100fb000003b100cf
:1015200002014000010078009101fb000303b100bb
:10153000e98f5100f7ff360092b79f000a0037008d
:101540008001eb0093b79f00a2c2b30082cf50008e
:1015500005003a000faa9700c402780084af9f00ec
:1015600095b79f000000e800e1c2b30090cf1000e3
:1015700017003a000ee0a000e4c05000d0cf1000e9
:1015800003003200800078008001eb000900370082
:101590008fab9700c700780087af9f00d1af9f0047
:1015a0000000e800000178000d0037006a1ab90059
:1015b00084014100010078003101fb000203b10009
:1015c000e90f5100f9ff3600d3af9f00f5ff370058
:1015d0000ec0a0000001eb00d2af9f00f1ff37006a
:1015e000820178003340780003017800c1c6b3005f
:1015f000814f50002b003200e39f9f0014003c00fd
:10160000e8c05000814f50002400320009003c0027
:10161000ecc05000814f50002e003200ebc0400063
:10162000814f5000980032000004e0002105320094
:10163000b400370061c6b300814f50001f00320074
:10164000e3c04000814f5000ae003a001300370065
:1016500031c7b300814f50002200320007003c0028
:10166000e4c05000814f5000170032008140e80074
:10167000814f5000a3003a001600370051c7b30055
:10168000814f5000a4003200e3c04000814f500061
:101690009c003a00a0779f0010003700a0779f00c1
:1016a0009f003700000120000e48a3000100320017
:1016b000000028000e077000c9ff3700a0779f00c8
:1016c0000ea0a00096003700a0779f000e60a0003b
:1016d00093003700a0779f000e50a0000e70a0006e
:1016e0008f003700a0779f008fa9970043007800f4
:1016f00083af9f00000478000000e00001003a0082
:1017000088a82000880078000000eb000100370066
:101710000000e800614178000204e000fcff3a00ac
:10172000800478005faa97000400e0000300320004
:10173000890f520001003100840478008001eb0021
:101740009fb29700898f52000100360089815200b4
:1017500068036700d6af9f002c003a0003077800ab
:10176000110037003c0090000068a3000700320021
:101770000d017800010220000c0078000cff07002a
:101780000000e00006003a00060037008c007800f8
:1017900000022000ce040700e10f400001003200eb
:1017a0008d06e8000e07e9000e00e000edff3a00ac
:1017b0008081eb00150037003c0090000068a3001a
:1017c0000900320008007800b000fb000004780037
:1017d0000d0178000c007800f5fe07000000e00025
:1017e00008003a000a003700880078003100fb004a
:1017f000010478008c007800b5040700e10f400078
:10180000030032008d06e80001003700030778006e
:10181000090078008004e9000000e000e6ff3a00db
:101820008e017800dfab97000700e0009c043200d7
:1018300003077800110037003c0090000068a30007
:10184000070032000d017800010220000c00780032
:10185000d7fe07000000e00006003a00060037004f
:101860008c0078000002200099040700e10f40007e
:10187000010032008d06e8000e07e9000e00e000ce
:10188000edff3a00860437008fa8970041007800ea
:1018900081af9f006102b900612bb90094af9f0036
:1018a000a5af9f00b6af9f00c7af9f004822de00e4
:1018b0004828dd0004027000a4779f000e48a300b2
:1018c000090032000404e00007003200e14f42004a
:1018d00005003200b4779f00afd09700c1779f001a
:1018e00029002000030037002fd19700b2779f0016
:1018f0001900200023fb2f008f8141000304e80022
:1019000088ff3700a0779f0028fb2f000f044400ba
:101910001900200083ff3700a0779f000e0cb30052
:101920000070200000006700640232000ec8a300af
:101930000200320064002000d4af9f000e48a300d4
:10194000090032000faa97004401be004400be0007
:1019500084af9f0090af9f00a1af9f00b2af9f00e8
:10196000c3af9f000a0037008faa97004500be0052
:1019700085af9f00050607000002be000203be00ff
:1019800094af9f00a5af9f00b6af9f00c7af9f0069
:101990006022b8006033b8001fa89700afa8970076
:1019a0003fa99700cfa997004a0507000000e00073
:1019b0000a003d001fa89700afa897003fa9970015
:1019c000cfa9970003f0a20090af9f00a1af9f00a6
:1019d000b2af9f00c3af9f003e00b3000000eb001a
:1019e000b09f9f006022b8006033b8001fa8970026
:1019f000afa897003fa99700cfa9970099050700c6
:101a00000000e0003400320064fb2f000f024200af
:101a10001fa89700afa897003fa99700cfa99700ec
:101a2000550607003f9897000000e9006302b900df
:101a3000a2002000110009000202d800b09f9f0000
:101a40000000e00002003d000000e900b09f9f00a0
:101a50003f9c97000840ea00f3fd07001faa97008b
:101a6000afaa97003fab9700cfab97005f06070088
:101a70000002be000203be0084a79f0095a79f003e
:101a8000a6a79f00b7a79f006022b800060020000d
:101a900007ff23000f0507000000e00002003d00e3
:101aa0000804e9000b0037006022b800060020009f
:101ab000470224000fa097009fa097002fa1970036
:101ac000bfa19700080507000000e00002003500f4
:101ad0000804e800b89f9f00dfaa9700f88f520023
:101ae0000f003c000540780072fd07000002be00b8
:101af0000203be001fa89700afa897003fa9970058
:101b0000cfa99700760407000002be000203be00c2
:101b100094af9f00a5af9f00b6af9f00c7af9f00d7
:101b20003f9c9700e90f540015003c006022b8006c
:101b30006033b8001fa89700afa897003fa997008f
:101b4000cfa99700470507000000e00032003200ef
:101b50001fa89700afa897003fa99700cfa99700ab
:101b6000a9050700e00f5000e08f5800e00f590072
:101b7000e08f590028003a00e10f5400260034009d
:101b80000400200005002e00b6e02200170124000a
:101b90000fa097009fa097002fa19700bfa19700cb
:101ba000cc0407000000e00002003d007304540074
:101bb0000100370072045400b89f9f006f709700b7
:101bc00099fd07000002be000203be0084a79f002b
:101bd00095a79f00a6a79f00b7a79f001fa89700e3
:101be000afa897003fa99700cfa99700c3040700ab
:101bf000850507000205be000004be006000b800b5
:101c00006011b80090af9f00a1af9f00b2af9f00de
:101c1000c3af9f00170037001fa89700afa8970019
:101c20003fa99700cfa99700770507000205be00de
:101c30000004be00a50507000002be000203be00ae
:101c40001fa89700afa897003fa99700cfa99700ba
:101c50005b0607000002be000203be0094af9f00b7
:101c6000a5af9f00b6af9f00c7af9f000000eb007d
:101c7000b09f9f0085a9200014c0b3000800370062
:101c80003500be003501be000040e10001c8e100a2
:101c900002d0e10003d8e100030039000442e8006b
:101ca000f44f5200f6ff3a00a4779f003f98970048
:101cb0009fb29700008052005fab970086005000f3
:101cc0000400fb000080500090b79f000600e00079
:101cd000020032000000e90090b79f006300670037
:101ce000030032009fb397008703e90097b79f0076
:101cf0000e28a30050003200610167000e18a300f7
:101d00000f0032003c0090000068a3000600320083
:101d1000b10220000200e000010032008180e800f2
:101d20000d0178000d003700b00220000200e00035
:101d3000010032000080e8008c0078000e003700bf
:101d40000200e000330032003c0090000068a30075
:101d5000070032000d017800010220000c0078001d
:101d600093fd07000000e00006003a00290037005c
:101d70008c0078000002200055030700e10f4000ae
:101d8000240032008d06e800220037003c0090005d
:101d90000068a3000f0032000d017800010320004d
:101da0000c007800f4b79f0085bf9f00d6b79f0056
:101db000e7b79f007efd07007fb297008fba9700bc
:101dc0005fb39700efb397000000e0000e003a0009
:101dd0000e0037008c00780000032000f4b79f004d
:101de00085bf9f00d6b79f00e7b79f003803070065
:101df0007fb297008fba97005fb39700efb3970059
:101e0000e10f4000010032008d06e8008904e9007e
:101e1000030037000802be000a03be009fb497000b
:101e20000900e000d9ff3c0099b79f000605be00fd
:101e30000404be00670037000e38a3001e003a00fd
:101e4000c8a79f00d9a79f00eaa79f00fba79f00f4
:101e50009fb49700110037003c0090000068a30079
:101e6000070032000d017800010220000c0078000c
:101e70004ffd07000000e00006003a0006003700b2
:101e80008c0078000002200011030700e10f4000e1
:101e9000010032008d06e8008904e9000900e00035
:101ea000edff3c0099b79f004fa49700dfa4970077
:101eb0006fa59700ffa59700610167000e18a300aa
:101ec0000e0032003c0090000068a30005003200c4
:101ed000b10220000200e000250032008180e8000d
:101ee00023003700b00220000200e00001003200b1
:101ef0000080e8008c007800320037000200e0002b
:101f0000340032003c0090000068a300030032005f
:101f10000d01780001022000160037008c007800c7
:101f200000022000270037003c0190008100fb00e8
:101f300000a920000268a30013003200c308dd00de
:101f4000010040003002be002003be000800be00b9
:101f50000a01be002cfb0700a400200005002000a1
:101f60006033b8002ffb0700010320008080400091
:101f70000d0178000c0078000dfd07000000e00066
:101f800013003a0013003700c308dd0001004000d1
:101f90003002be002003be000800be000a01be00e1
:101fa00019fb0700a4002000050020006033b800e2
:101fb0001cfb070002032000000141008c00780098
:101fc00002007800c2020700e10f40000100320069
:101fd0008d06e8002f7097008040e900a1779f00f0
:101fe0000004e000d0ff3a00130037003c009000ee
:101ff0000068a300070032000d01780001032000f3
:102000000c007800eafc07000000e00006003a003f
:10201000060037008c00780000032000ac020700a7
:10202000e10f4000010032008d06e8003f98970064
:102030000000e900b09f9f003f9897000000e0007b
:10204000eaff3c00dfa89700f28f50000300340045
:1020500020c1b300a0779f00020037002fd997005e
:10206000a2779f002f7097008000fb00dfa99700e8
:1020700081805100d1af9f000004e00010003200c9
:102080003c0090000068a300070032000d017800ba
:10209000e10220000c007800c5fc07000000e00011
:1020a00006003a00060037008c007800e0022000ad
:1020b00087020700e10f4000010032008d06e800b2
:1020c0002f70970058fc07000002be000203be00fc
:1020d0001fa89700afa897003fa99700cfa9970026
:1020e000c204070048040700330037003c01900099
:1020f00001a920000000fb000268a30013003200c9
:102100004300dd00008040003002be002003be001e
:102110000800be000a01be00bbfa0700a4002000b0
:10212000050020006033b800befa07000003b000cd
:102130000d017800800078000c0078009cfc0700fe
:102140000000e00011003a00110037004300dd00fc
:10215000008040003002be002003be000800be0028
:102160000a01be00a8fa0700a40020000500200014
:102170006033b800abfa07000003b0008c007800b1
:1021800053020700e10f4000010032008d06e80015
:102190002f7297000400fb004300dd0001a920001e
:1021a000008040003002be002003be000800be00d8
:1021b0000a01be009bfa07000205be000004be0033
:1021c000af7097000140e900a0779f000104e00094
:1021d000c6ff3a0098af9f00a9af9f00baaf9f001b
:1021e000cbaf9f00dfac9700110037003c009000a0
:1021f0000068a300070032000d01780001032000f1
:102200000c0078006afc07000000e00006003a00bd
:10221000060037008c007800000320002c02070025
:10222000e10f4000010032008d06e8008904e9005a
:102230000900e000edff3a001fac9700afac97003b
:102240003fad9700cfad97000e38a30014023200c7
:102250009fb097000100e00011023400d8af9f004a
:10226000e9af9f00faaf9f008bb79f008104780011
:102270003c0090000068a300070032000d017800c8
:10228000010220000c00780049fc07000000e0007b
:1022900006003a00060037008c007800000220009b
:1022a0000b020700e10f4000010032008d06e8003c
:1022b0008904e900eeff3a00f90137000e007800ca
:1022c000000cb20021003a000e00e00005003d00c5
:1022d0008faa97004505be004504be0085af9f004c
:1022e0000d0037000e48a300060032000fab970028
:1022f0004604be0086af9f004fcdde008a05780001
:10230000050037008fab97004704780087af9f0028
:10231000cfc4de00614db900e00f5400e08f5c00d7
:10232000e00f5d00e08f5d001b003d003e00b3004c
:102330006000b8006011b80008045000898458009b
:102340000a0559008b855900130037000e00e00084
:1023500005003d000fa897004005be004004be00e8
:1023600080af9f000c0037000e48a300050032002c
:102370008fa897004104be006055b80081af9f0050
:10238000050037000fa997004204780082af9f0034
:102390008004eb006055b800dfa997000300e0005f
:1023a00009003a0014002000d4af9f00e00f540051
:1023b000e08f5c00e00f5d00e08f5d000200320006
:1023c0008002eb00d5af9f000e037800060cb20030
:1023d00096af9f0000042000800f53002c003200b5
:1023e00003003c000600e000080032003c0037001b
:1023f000000820009fab9700808f53001000320030
:10240000000c2000808f530035003a0085a9200081
:1024100014c0b3003500be003501be000040e1002d
:1024200001c8e10002d0e10003d8e1002b0039002f
:102430000442e800f44f5200f6ff3a00270037004c
:1024400014c0b30000012000010020006011b8009a
:102450000040e10001c8e10002d0e10003d8e10042
:102460001e003900450020000000d0008180d2000d
:102470000281d2008381d2008502e900faff3a008e
:102480000442e800f04f5200f1ff3a001300370019
:1024900014c0b30080002000010020006011b800cb
:1024a0000040e10001c8e10002d0e10003d8e100f2
:1024b0000a003900360020000000d0008180d200e0
:1024c0000281d2008381d2000603e900faff3a00bc
:1024d0000442e800f54f5200f1ff3a00a4779f0054
:1024e000af7397000700fb00dfa89700810f500033
:1024f00002003d00a1779f00040037005fa997000c
:10250000800f510001003d00d0af9f009fb19700a8
:102510000300e000040032006300670002003200a4
:102520008301e90093b79f000ee8a3000900320081
:102530001fb29700dfaa9700850f520003003400f6
:102540000502520094b79f00020037000003eb0021
:1025500096b79f00af7397000700fb008000eb0069
:10256000c1a79f001fb19700800f510002003400e7
:1025700000005100c0a79f000e28a30044003200b5
:10258000610167000e18a3000f0032003c009000ac
:102590000068a30006003200b10220000200e00043
:1025a000010032008180e8000d0178000d00370045
:1025b000b00220000200e000010032000080e800cc
:1025c0008c0078000e0037000200e000100032009e
:1025d0003c0090000068a300070032000d01780065
:1025e000010220000c00780071fb07000000e000f1
:1025f00006003a00060037008c0078000002200038
:1026000033010700e10f4000010032008d06e800b1
:10261000cfa197000300e0006200320098b79f004e
:10262000a9b79f00bab79f00cbb79f00830478007b
:102630003c0090000068a300070032000d01780004
:10264000010320000c00780059fb07000000e000a7
:1026500006003a00060037008c00780000032000d6
:102660001b010700e10f4000010032008d06e80069
:102670008904e900eeff3a00c9a79f001fb4970044
:10268000afb497003fb59700cfb59700450037002e
:10269000cfa297000500e0001e0032000e38a30014
:1026a0001c003a0098b79f00a9b79f00bab79f00d7
:1026b000cbb79f00850478003c0090000068a30021
:1026c000070032000d017800010220000c007800a4
:1026d00037fb07000000e00006003a000600370064
:1026e0008c00780000022000f9000700e10f400094
:1026f000010032008d06e8008904e900eeff3a008f
:10270000c9a79f001fb49700afb497003fb59700cb
:10271000cfb59700610167000e18a3000f003200cb
:102720003c0090000068a30006003200b1022000c7
:102730000200e000010032008180e8000d01780015
:102740000d003700b00220000200e000010032005e
:102750000080e8008c0078000e0037000200e000e6
:10276000100032003c0090000068a3000700320017
:102770000d017800010220000c0078000cfb07001e
:102780000000e00006003a00060037008c007800e8
:1027900000022000ce000700e10f400001003200df
:1027a0008d06e800dfa897000100e9004201dd0086
:1027b000d29f9f006301b90002027800c49f9f006e
:1027c0004300dd0001a9200081004000f19f9f002f
:1027d00098b79f00a9b79f00bab79f00cbb79f00db
:1027e00094003700dfa897008100e900d1af9f0077
:1027f000000420001fa99700800f510064003200e0
:1028000003003c000200e000080032006f003700c7
:10281000000820009fa99700808f510048003200d7
:10282000000c2000808f510068003a000e00e0008c
:102830001a003d007f9a97003404be002405be00b4
:102840000802be000a03be001fb09700afb0970099
:102850003fb19700cfb19700ebf80700a0779f003a
:102860000000fb00cf80de006109b9000802be0055
:102870000a03be004df907001fb29700afb29700e0
:102880003fb39700cfb397000002520081825a00f5
:1028900002035b0083835b00170037000e48a30030
:1028a0001a0032001fb29700afb297007f9b9700cb
:1028b0003604be002605be000801be000400be00ae
:1028c000f4b79f0085bf9f003f030700a0779f00dc
:1028d0000000fb00cf80de000801be004a030700b5
:1028e0007fb297008fba97000000520081805a0093
:1028f0000002be006033b80094b79f00a5b79f00e8
:10290000b6b79f00c7b79f0009003700ff9a97002e
:10291000150178001fb39700110009000283d80049
:10292000a2002000110009000280d800a1779f00ba
:10293000af7397000743b000a7779f0023003700cd
:1029400070a720000e58a3000100320060a62000ee
:102950001fb29700afb297003fb39700cfb3970075
:10296000df9897008100e900050033008703d1005c
:102970000683d3008582d3000482d300f9ff370099
:102980006f02620060427a00a4779f000f00370058
:102990001fb09700afb097003fb19700cfb197003d
:1029a0004f9a97000402e900050033008301d1002b
:1029b0000281d3008180d3000080d300f9ff37006b
:1029c000674060000043b000a0779f00bc0090000b
:1029d000af7297000500fb000168a30007003200fa
:1029e0000d017800800078000c00780070fa070074
:1029f0000000e00005003a00050037008c00780078
:102a000033000700e10f4000010032008d06e800ae
:102a10005f9b970064035300d69f9f00cf9b970056
:102a2000e3835300c79f9f007f9897006800500082
:102a3000f09f9f00dfa897000100e00069ff3a00c7
:102a40000e38a300160032004fa197000200e000ec
:102a500013003400020778003c0090000068a300d7
:102a6000070032000d017800010220000c00780000
:102a70004ffa07000000e00006003a0006003700a9
:102a80008c0078000002200011000700e10f4000d8
:102a9000010032008d06e8000e07e900eeff3a0063
:102aa000ef99970013407800a0779f000004e000a2
:102ab00058fa3a000d0078004f0778004f06be0024
:102ac0004f05be004f04be002f04b10000000600f9
:102ad000889fbe0001047800b80090008084eb005d
:102ae0000118a3003a003200180190000198a300d9
:102af00002003a000200e00035003a000190a00018
:102b00003104980080047800f90fb2000200e00060
:102b100002003a0028009000000c7800ea8f540070
:102b200005003a000178a30003003a00880078000d
:102b3000d0002000e6ff070018009000d8009000a9
:102b4000810f50000b0032000000e80010049800d4
:102b50001800780009487800000ce80011c0b300a4
:102b600060b5200001487800ea8f540018003a0050
:102b7000050037008800780009407800170007003a
:102b80008004780012003700380090000088a3000d
:102b90000f00320018019000a8009000480090003b
:102ba000e6f5070098009000810f50000400320005
:102bb000380090000003b300300498008084eb00dc
:102bc0000000eb001004980028009000000c780032
:102bd000090078004f04be00000006000200fa0061
:102be000889fbe00a0ff9f0001047800380090007d
:102bf0000068a30033003a00e200600005003a00dc
:102c00000003b30030049800110498000080eb002a
:102c10002e003700d80490000900e00006003a00ba
:102c200012002000e680570048009000c3f507001e
:102c30001904980023003700a80090000100e0006c
:102c400008003a0091b5200021049800010c78009a
:102c50002100200051049800110498000030a000c9
:102c60003004980018019000a800900048009000df
:102c7000b2f50700280090008080eb001104980056
:102c8000aff8970001487800000ce8002ff8970093
:102c9000ea4f50000b003a00380090000088a30073
:102ca0000800320018019000a80090004800900031
:102cb000a2f507000000eb0010049800a8009000a7
:102cc000010c7800aff897000100fb004f04be0034
:102cd0000080fa000000060000c0da0000000600d4
:102ce0002800fa00889fbe008a9fbe008c9fbe000d
:102cf00007067800878669000c003b000304780013
:102d00008704780008f0a10009f0a100840f5000aa
:102d1000858f5800860f5900890f5c00030033002f
:102d20000cf0a20001003a000cf0a100fe00070028
:102d30006400e1005f003200780147006408e100b0
:102d4000610032006c014700748557003200be00fc
:102d50001201be003a04be001a05be001e03900018
:102d6000be0a90008503530006003d000004fd00ec
:102d70008104fd000205fd008305fd008703ea00d4
:102d8000050378000df8a30004003200600414006d
:102d9000e0841c0060051d00e0851d006022b80075
:102da0007d0320000d38e1008006eb000b003900a8
:102db0004433dd00f300b2008301730039003700b3
:102dc000848272000d027800e10664008b85d100d8
:102dd0000a85d3008984d3000884d3008703e900df
:102de000f7ff3b0008004000898048000a014900c5
:102df0008b81490004003b0060001000e080180057
:102e000060011900e08119000358a3000900320095
:102e10008d82720084827200610260008301d100a1
:102e20000281d3008180d3000080d3000603e80034
:102e30001b0037000348a30017003a000600e0001b
:102e4000170034000603e9000d00a300000048004d
:102e50008180480002014900838149000348a300a2
:102e60000f003a000600e000090034000603e90004
:102e70000000400081804800020149008381490030
:102e800001003a000003eb000348a300f5ff320005
:102e90006022b800020037008482720061826600fe
:102ea0007500070003f0a1000cf0a70003f0a000dc
:102eb000b1003700640147006408e10002003a00f5
:102ec0000df8a300a9003a003200be001201be00b6
:102ed000a90037008f1fd100d10107008f87e900bb
:102ee0000000e00000000600809feb00cc0107001e
:102ef0008f87e9000000e000000006002800fa00cb
:102f0000889fbe008a9fbe008c9fbe0003866b0018
:102f1000850007006400e100440032006408e1001d
:102f20004a0032006100e100460032006108e10021
:102f300049003200ec0647006000b8003d02be00c8
:102f40003d03be00f48657006011b8003d04be008a
:102f50003d05be007d0320000b0037000000a000ef
:102f60008d06e900130032000402420085824a0007
:102f700006034b0087834b0000004000818048001f
:102f800002014900838149000802520089825a00e7
:102f90000a035b008b835b00f0ff3b0008024200ea
:102fa00089824a000a034b008b834b008d06e9009f
:102fb000edff3a008482720086827200f707b20049
:102fc0008782720001003200150020001e0490006c
:102fd0003e0b900006035400e63fb0000368a300d8
:102fe000070032000000a7000500a0008301d10007
:102ff0000281d3008180d3000080d3000603e80063
:103000008301d1000281d3008180d3000080d300ee
:103010000002eb000482d2001700070003f0a100b9
:103020000cf0a70003f0a000530037006402470033
:103030006408e1004d0032003400be003401be00df
:10304000f6ff37006108e100480032006011b80067
:103050006000b800f1ff370003ff270002002000e6
:10306000fbff3700801feb006d0107008f87e90031
:103070000000e000000006001800200057002000bb
:10308000080453000d003d000600200097fc2f00af
:103090000740e1001e00340084827200610260007b
:1030a0008301d1000281d3008180d3000080d3004e
:1030b0000804e800f8ff3a004700200061046000bf
:1030c00005047400040464000d0032006100400037
:1030d000e080480060014900e081490003b8a50094
:1030e000070032000603e8006538e10004003a00fa
:1030f0008301d1000281d3008180d3000080d300fe
:10310000f87f20000830e100030035000803780054
:103110006000b8006011b8004433dd00f300b20075
:103120008301730000000600680447000294be009b
:103130000094be00fc0447008694be008494be0048
:10314000090078007f010700080078007d01070072
:1031500099007800814f70000b003b000800be0012
:10316000580107004f00b10003003700f3ff2700ac
:10317000f2ff2f006110b9004f06be004f05be00e0
:103180004f04be000080fa000000060081037800b2
:10319000a3f507000001be006000b8000478a3009a
:1031a00013003a006220e10015003e000d003900d6
:1031b0008301d1000281d3008180d3008301d1003b
:1031c0000281d3008180d3008301d1000281d3002a
:1031d0008180d3000538b000c42add00f300b200be
:1031e0008381720007f0a70003f0a0000000060032
:1031f000f3ff2700f2ff2f006110b900fbff37003b
:1032000003ff2700f7ff37001400fa00889fbe0075
:103210008a9fbe008c9fbe000004be000205be0057
:10322000680047000a90be000890be0045010700f4
:103230000070a7000bf0a1000bf8a30020003a00db
:103240009e0990000e099000fe0090006e00900014
:103250009e0290003443200084825200c6ff320058
:103260000a003c00b4fc2f000428e10014003400e4
:103270008301d1000281d3008180d3000080d3007c
:103280008502e800faff3a00bbff3700b4002000d7
:103290000428e10007003c00000040008180480055
:1032a00002014900838149008502e900faff3a00e2
:1032b000b1ff3700030028000200200001003700a2
:1032c0006011b8006000b800abff3700889fbe00f7
:1032d0000082700004027100048271002400320038
:1032e00036432000c50020008383cf000a00390048
:1032f0000541b1008283cf00070039000541b100cc
:103300008183cf00040039000541b1008083cf00e4
:10331000010039000541b10085c353006022b800a7
:10332000120032000a003b008482720061026000d9
:103330008301d1000281d3008180d3000080d300bb
:103340000603e8008743e800f7ff3a00070037006c
:10335000000040008180480002014900838149004b
:103360000603e9008743e900f9ff3a0042ff07003e
:103370004f04be00000006001400fa00889fbe0043
:103380008a9fbe008c9fbe00040678000004be0029
:103390000205be00680047000a90be000890be000b
:1033a000e80007006200e1000800be000a01be005c
:1033b000040020000b003a001e029000e43fb10020
:1033c0006e009000fe0090000e0990009e09900093
:1033d000f300b20005fe2300858171000bf0a70009
:1033e00003f0a000040e780063ff37002800fa0005
:1033f000889fbe008a9fbe008c9fbe0003866b0024
:1034000049ff07000028a30064003a000128a30038
:1034100067003a000008a30062003a000108a30018
:1034200065003a001e009000be0890008106400032
:10343000ed3fb100f4805700ee019000111ab80082
:103440008e099000311bb8009e099000311cb80015
:10345000511db800f485570046000700fe0190009a
:103460003a0007008b85e8003e0007008e099000b7
:1034700040000700ee019000340007008b85e80053
:10348000380007008e099000400007009e09900058
:103490001b18b800890440000a854800fe0190000e
:1034a000340007008b85e80038000700ee0190002b
:1034b000300007008e0990001b18b80089044000f6
:1034c0000a8548000a98a30008003a000402420056
:1034d00085824a0006034b0087834b0008044c009a
:1034e00089844c000a054d008d06e9008482720033
:1034f000850273004c3add00850272000100320043
:1035000015002000443ade001400b2004538de0009
:10351000cb45dd000b007000c540de00cb4ddd006b
:103520008b8070004549de00cb55dd000b0171003a
:10353000c551de000d037800cffe070003f0a100a7
:103540000cf0a70003f0a0000bff37001b18b80019
:103550008502400006834800e0834b0060044c0075
:10356000070037001b18b800060340008783480097
:10357000faff37001b18b800870340000884480092
:10358000e0844c0060054d00000006001b18b800e8
:103590000804400089844800faff37000108a300ae
:1035a000f2fe3a005800be005801be00e3ff3700ab
:1035b0000008a300edfe3a0009047800f9ff370087
:1035c00007f0a200c6fd37006022b8000602200006
:1035d0000000d0008180d2000482d2008582d20017
:1035e0000000a0000202520083825a000300310052
:1035f0000202420083824a000000a1000603e900a3
:10360000f3ff3a0000000600020ab900001bb900ef
:103610000200b80081004200810043000000060063
:10362000889fbe008a9fbe008c9fbe000404be001f
:103630000605be00809fbe00829fbe002f000700cf
:10364000040678000800be000a01be002b00070037
:10365000840678004f03be004f02be008d4f7600f7
:103660007fb0970013003300f0ff2f008b8f6b00ab
:1036700006003b000d0666000c00a7000a0037009c
:1036800007f0a600100020000a003700880f520043
:10369000898f5a008a0f5b008b8f5b000300390013
:1036a0001000200001003e000000200007f0a700ed
:1036b0000000ea004f06be004f05be004f04be00ea
:1036c00000000600e48240001078a30007003200ea
:1036d000640240001178a3003400be001401be0053
:1036e000040032000330a700000006003500be00d1
:1036f0001501be000330a0000000060005ff2700f2
:1037000005826100070032000428e1000100320058
:10371000240005000600070001003a0044000500ef
:103720000408050002000700f9ff3a001400050034
:103730006f82610081027000850271008502720053
:1037400000000600800078005002be005003be005a
:103750004439de00f700b200f37f2000030161006e
:10376000090032000218e10016003a0085017200db
:1037700083017300838173000008200015003a0064
:1037800040002000130037008501720083017300a0
:103790008381730005003a0004a8be0006a8be009d
:1037a000100020000b0037000201e9000402420073
:1037b00085824a0006034b0087834b000748a3001d
:1037c000f9ff32000740a00004a8be0006a8be0012
:1037d0002000200080009800920098000000060061
:020000040000fa
:1037e0004265000061720000696e00006720000001
:1037f00048790000647200006f7000006f6e000076
:103800006963000073000000207000004849000058
:103810006f54000020200000562e0000312e0000c2
:103820003420000000460000697200006d7700003f
:10383000617200006520000076650000722e0000b5
:10384000312e00003420000000550000706400009c
:10385000617400006520000020320000392f000054
:10386000303300002f31000037200000200000001e
:1038700070480000343d0000256400002070000006
:10388000483700003d250000640000005350000050
:103890003d2500002e310000662000006d3d000037
:1038a0002566000000410000253200002e31000096
:1038b00066420000253200006443000025640000d9
:1038c000440d00000a0000007048000020200000a5
:1038d000202000003a200000253200002e31000098
:1038e0006620000020200000202e00000070000054
:1038f0004820000020200000203a00002025000081
:10390000322e000031660000202000002020000040
:1039100020000000546500006d7000002e200000a3
:103920003a200000253200006420000025630000da
:103930004320000020200000002000002020000084
:103940007048000020530000657400007469000096
:103950006e6700002020000020000000536500007a
:10396000747000006f6900006e740000203a00005f
:10397000202500002e3100006620000020000000fd
:1039800053650000747000006f6900006e740000e1
:10399000203a00002020000020200000202000000d
:1039a0000020000020700000482000004c6f000044
:1039b000772000004c6900006d6900007420000051
:1039c000200000002070000048200000486900002e
:1039d00067680000204c0000696d000069740000f9
:1039e000202000000020000020700000482000007f
:1039f0004869000067680000204c0000696d000005
:103a000069740000200000002020000070480000c1
:103a1000204400006f73000065200000546900001e
:103a20006d650000202000000020000054690000a7
:103a30006d650000203a000020250000326400007f
:103a400020530000656300002020000000200000db
:103a5000546900006d650000203a0000202000003d
:103a600020200000536500006320000000200000bb
:103a70002020000070480000204900006e74000003
:103a800065720000766100006c20000020000000dc
:103a900020540000696d0000652000003a200000fd
:103aa00025320000642000004d6900006e2e0000e9
:103ab0002000000020540000696d00006520000017
:103ac0003a20000020200000204d0000696e000018
:103ad0002e20000000200000202000007048000080
:103ae0002034000020200000436100006c2e000004
:103af0002020000020000000202000005072000064
:103b00006573000073200000204500006e74000003
:103b100065720000202000000020000054690000b1
:103b20006d650000204c00006566000074200000f8
:103b3000256400002000000020200000207000000c
:103b4000482000003720000020430000616c000086
:103b50002e20000020200000002000002020000077
:103b6000446500006275000067670000696e000030
:103b700067200000202000002000000041440000d9
:103b8000433d0000253100002e310000662000007a
:103b900025300000326400003a2500003032000079
:103ba0006420000020200000002000007048000079
:103bb000204600006565000064200000636f00007f
:103bc000756e00007420000020000000202000001e
:103bd000202500003034000064200000206d00002b
:103be0006c200000202000002020000000200000a9
:103bf000507500006d700000202000004f7600001e
:103c0000657200006964000065200000200000006b
:103c100020200000505500005348000020540000b0
:103c20004f2000004f4e0000202000002020000008
:043c30000000000090
:020000040000fa
:103c34000200fa00004f780000982a0031002000aa
:103c4400890d0700dc82a900dca2a900e11680002e
:103c5400000f2000808060001e80fb004400de0016
:103c6400004078000080fb0001007000e01688002e
:103c7400dc82a800dc82a900e1168000000f20008d
:103c8400808060001e80fb006f00600001007000f7
:103c9400e0168800dc82a800dc82a900004c2d001c
:103ca40011002000700d07000080fa0000000600db
:103cb4000600fa00204798003147980042479800d0
:103cc400be4090004e40900080c040002e409000c6
:103cd40000c04000684f40001e407800d4ff070039
:103ce4000080fa00000006000000fa0010c0b300d3
:103cf400cfff07000080fa00000006000200fa006f
:103d0400004f78001147980000982a0031002000e5
:103d1400550d0700dc82a900dca2a900e116800091
:103d2400000f2000808060001e4090000080fb0097
:103d34000001e9001e80fb000000e9004411dd00e1
:103d440000014100a08c20000000410010407800d8
:103d54000080fb004400de00004078000080fb008f
:103d640001007000e0168800dc82a800dc82a90053
:103d7400e1168000000f2000808060001e4090004b
:103d84000080fb000001e9001e80fb000000e90048
:103d94004411dd0000014100a08c2000000041001e
:103da400104078000080fb006f006000010070008c
:103db400e0168800dc82a800dc82a900004c2d00fb
:103dc40011002000280d07000080fa000000060002
:103dd4000200fa00004f7800dca2a800e11680007f
:103de400000f2000808060001e80fb004400de0085
:103df400004078000080fb0001007000e01688009d
:103e0400dc82a800dc82a900e1168000000f2000fb
:103e1400808060001e80fb006f0060000100700065
:103e2400e0168800dc82a800dc82a900004c2d008a
:103e3400110020000c0d07000080fa0000000600ad
:103e44000600fa00004f7800114798001207980006
:103e5400230798009e4090001e407800a7ff0700ab
:103e6400130037002e00900010407800ae00900040
:103e74008100e80021079800d5ff07001e0090008c
:103e84008000eb006011b80004602300e5162000f8
:103e94006033b800c4f30700843e2000050020000e
:103ea4006033b80057f307000000be00ee0c0700b3
:103eb4002e009000104078000004e000e9ff3a0072
:103ec4000080fa00000006000000fa00d822ef008b
:103ed40030c3b30056ff070020c3b30054ff0700ec
:103ee40080c2b30052ff070010c0b30050ff0700a8
:103ef4000041eb008040eb0040c0b3006cff0700c2
:103f04000080fa00000006000600fa00881f78000e
:103f1400200798002e009000000040002007980021
:103f2400ae00900000c02f00008f4000f0c7b30027
:103f340032e0b7001e0478001804ba00180798008d
:103f44001e0090004f0478000080fa000000060074
:103f54000600fa00889fbe00100798002107980009
:103f64001e00900000004000100798009e00900082
:103f740000c02f00008f4000f0c7b30032e0b7004c
:103f8400f0072000203b88009e007800113b880049
:103f940040042400003b880050052000303b88008a
:103fa400a00a2000303b880061e7a8000000000060
:103fb400013b800000002800008060000000e00059
:103fc400fbff3a0040002400003b88009e04780078
:103fd4002e049000880cbb0040002400003b8800a5
:103fe40050052000303b8800a00a2000303b8800a8
:103ff40061e7a80000000000013b800000002800e9
:10400400008060000000e000fbff3a004f04be00a7
:104014000080fa00000006000000fa00e042a80058
:10402400de42a8000080fa00000006000000fa004a
:10403400de42a900e042a900008423000100200020
:10404400890c0700de42a800005a2000010020006d
:10405400850c070000178000640060000000e00089
:10406400020032000040eb0004003700008423000b
:10407400010020007c0c070010c0b3000080fa008f
:10408400000006000400fa00204798000040eb00fe
:10409400004f78001a003700de42a900e042a90070
:1040a40080162000010020006f0c07002e409000b5
:1040b4000080fb0061006000004078000004e00024
:1040c40002003200e042a80001003700e042a900eb
:1040d400005a200001002000630c0700e042a80001
:1040e4002e4090000080fb000000d1002047980083
:1040f400000f2000010020005b0c07001e4fe800a9
:104104001e407800e74f5000e3ff36000080fa00bd
:10411400000006000200fa000040eb00104798007f
:104124001a0037001e80fb000000d100004f780009
:10413400de42a900e042a900801620000100200010
:10414400490c0700de42a80080072000010020007f
:10415400450c070000178000640060000000e000c8
:104164000300320000c8b3001e4f70000100370086
:104174001e74a100005a2000010020003a0c070020
:104184001e4090000040e800104798001e40900038
:10419400e74f5000e3ff36001e80fb000080fa006a
:1041a400000006001400fa00881f78009fff070033
:1041b4000004e0001b003200c0ccb300b1ff0700d4
:1041c40040c4b300afff070000b42000010020008a
:1041d400250c070095ff0700c0ccb300a9ff07001a
:1041e400e0cbb300a7ff07000040eb00004f7800ce
:1041f400070037001e84fb00c6ff07008800440048
:10420400810047008180e800800878001e4fe800a4
:104214001e407800e84f5000f6ff36000e80e8009c
:10422400010037000000eb004f0478000080fa0022
:1042340000000600801f78000000fa00104880008b
:104244000000e00003003200c04580000000e800e8
:10425400c0458800c0458000e50f500004003a00c6
:10426400d04580000000e800d045880007003700f2
:10427400c0458000ea0f500004003a00b828ef005f
:10428400b04580000000e800b04588008460a900c3
:104294000080fa004f007800004006000000fa0099
:1042a40005e1a9000421a90004c1a9002008800097
:1042b4000040a1000050a0002008880020088000d1
:1042c4000040a0000050a000200888000021ef005a
:1042d40010ce220010088800a004800000c0a000b6
:1042e40000d0a10000e0a100a00488008460a9001f
:1042f4008c60a80005e1a8000080fa000000060018
:104304000000fa00b628ef00b428ef000021ef0007
:104314000080fa00000006000c00fa00a1e2a900e7
:1043240000fe2f00000f78001e007800c20b07006b
:1043340070ff2f006b0b0700e0ff2f0010079800a1
:10434400f0c32f0020079800101c2e00300798009f
:10435400c0cf200040079800f0c12d0050079800fe
:104364002e0290009e0190003e019000ce0090002d
:104374005e0090007e0b07000080fa00000006003b
:104384000600fa00881f78006000b8001007980043
:104394002107980010002000000f78000d0037005e
:1043a400a022a8006e0b07000040eb00980b07004a
:1043b4008000eb00f1f007000001be001e00900039
:1043c400ae0090000bf0070010079800210798003a
:1043d4001e0fe800007122009e007800808f5000bc
:1043e400efff340002002400c36124001e0090008b
:1043f400ae0090005cf00700804388009143880081
:1044040002002400c36124001e009000ae0090004e
:1044140055f007000002be000044800011448000f3
:104424000001be000400be0029f107000002be0026
:10443400b0438000c14380000001be000400be0000
:10444400ecef07004043880051438800404380005c
:104454005143800018c0b3006011b80084f0070015
:104464000000e000010035000044eb000804e00017
:104474000b003a00404380005143800018c0b30051
:1044840002002000f33724007bf007000000e00066
:1044940001003c000044eb000804e000030032008b
:1044a4006000b80040438800514388004f047800fe
:1044b4000080fa00000006000000fa002621ef0048
:1044c4008038200040098800100980000080a00086
:1044d4000090a00000a0a000100988002241a900bb
:1044e40022e1a9000080fa00000006000000fa00a2
:1044f400881f7800404380005143800018c0b300f7
:104504006011b8005cf007000000e00001003c000e
:104514000044eb000804e0000c003200404380003b
:104524005143800018c0b30002002000f337240078
:104534004ff007000000e000010035000044eb00ec
:104544000804e00001003200d602a9004f047800fc
:104554000080fa00000006000000fa00881f7800be
:10456400404380005143800018c0b3006011b8007c
:1045740041f007000000e00001003c000044eb00b3
:104584000804e0000c0032004043800051438000e6
:1045940018c0b30002002000f337240034f00700f1
:1045a4000000e000010035000044eb000804e000d6
:1045b40001003200d602a8004f0478000080fa00ff
:1045c400000006000000fa00889fbe008a1f7800e1
:1045d4004043800051438000020020000312240065
:1045e400bbf007000004be00504780006147800014
:1045f4000200200003122400b5f007000001be00f1
:104604000800be001af007000000e00004003a00b1
:1046140010002000d0438800d602a90067003700ac
:104624004043800051438000020020000312240014
:10463400a7f007000004be005047800061478000d7
:104644000200200003122400a1f007001ac0b300e6
:104654000001be000800be0007f007000000e000f3
:1046640001003c000045eb000a04e00014003200a5
:10467400d04380000000e00011003a00d602a800f8
:104684007a28ef00e0458000cf80de0038f0070094
:10469400e27a2400531024008df007000002be00cb
:1046a400e0438000f14380000001be000400be002e
:1046b40050ef0700e0438800f14388003f003700d3
:1046c4004043800051438000020020000312240074
:1046d4007ff007000004be0090478000a1478000df
:1046e400020020000312240079f007001ac0b3006e
:1046f4000001be000800be00dfef07000000e0007c
:1047040001003c000045eb000a04e0001400320004
:10471400d0438000e10f500011003a00d602a800f7
:104724007a28ef00e0458000cf80de0010f007001b
:10473400e27a24005310240065f007000002be0052
:10474400e0438000f14380000001be000400be008d
:1047540028ef0700e0438800f14388001700370082
:1047640040438000514380000200200003122400d3
:1047740057f007000004be007047800081478000a6
:10478400020020000312240051f007001ac0b300f5
:104794000001be000800be00b5ef07000000e00005
:1047a400010034000045eb000a04e000030032007d
:1047b400d602a90010002000d04388004f057800dd
:1047c4004f04be000080fa00000006000e00fa004c
:1047d400889fbe008a1f78000080eb004015880087
:1047e400d202a900c662a800c682a800c6a2a80078
:1047f400b5fd07003cfd0700c7fe07002eff0700bc
:104804003f060700b428ef00b628ef00b828ef00f1
:10481400100020004007980030002000e045880088
:104824000000eb00b8fd07008000eb00d3ef0700a9
:1048340050478800614788005047800061478000e6
:10484400020020000312240047ef070050478800ad
:104854006147880000982a0031002000820a07007e
:1048640010002000a8fd07008000eb00c3ef070044
:104874007047880081478800704780008147800026
:1048840002002000832c240037ef070070478800c3
:104894008147880000982a0031002000720a07002e
:1048a4002000200098fd07008000eb00b3ef070014
:1048b40090478800a147880090478000a147800066
:1048c40002002000832c240027ef07009047880073
:1048d400a147880000982a0031002000620a0700de
:1048e4003000200088fd0700a042880000982a00bc
:1048f400310020005c0a07004000200082fd070010
:10490400b042880000982a0031002000560a0700af
:10491400500020007cfd0700e045880000982a0034
:1049240031002000500a07006000200076fd0700d7
:104934001048880000982a00310020004a0a070025
:104944007000200070fd07008000eb008bef070073
:10495400b0478800c1478800b0478000c147800045
:104964000200200003122400ffee0700b047880075
:10497400c147880000982a00310020003a0a070045
:104984008000200060fd07008000eb007bef070043
:10499400d0478800e1478800d0478000e147800085
:1049a40002002000832c2400efee0700d04788008b
:1049b400e147880000982a00310020002a0a0700f5
:1049c4009000200050fd07008000eb006bef070013
:1049d400f047880001488800f047800001488000c3
:1049e40002002000832c2400dfee0700f04788003b
:1049f4000148880000982a00310020001a0a0700a4
:104a0400a000200040fd07008000eb005bef0700e2
:104a1400404588005145880000982a003100200054
:104a2400110a0700b000200037fd0700f045880098
:104a340000982a00310020000b0a0700c000200063
:104a440031fd07002048880000982a00310020002a
:104a5400050a0700a0428000e10f400002003a006e
:104a6400e0142000a0428800b0428000e10f400022
:104a740002003a0060182000b0428800b142800071
:104a8400a0428000008050008000eb003bef070054
:104a94000001be000000200001042400b2ee070063
:104aa4000044880011448800a04280008000eb008c
:104ab40032ef07000002be00004480001144800071
:104ac4000001be000400be0081ef07000001be002b
:104ad400000020000108240045ee0700b0438800d0
:104ae400c1438800e04580000000e00002003c0073
:104af40050002000e0458800f04580000000e00000
:104b040002003c0050002000f045880042012000d3
:104b140001bf29002083200048f1070020832000e2
:104b2400800178000001eb0011c0b30010c0b30095
:104b3400c3fc0700f200200041c0290020832000ac
:104b44003ef1070020832000800178000001eb0083
:104b540021c0b30010c0b300b9fc070000c0260098
:104b6400c12d2000c00907002201200031c1290005
:104b74002083200031f10700208320008001780089
:104b84000001eb0011c0b30010c0b300acfc07007f
:104b94003201200051c229002083200027f10700a0
:104ba40020832000800178000001eb0021c0b300c5
:104bb40010c0b300a2fc070000c02600c12d2000d5
:104bc400a9090700b1428000a0428000811f78003b
:104bd400801f780080c32900801f78002083200074
:104be4001df10700e687570020832000800178002c
:104bf4000001eb0011c0b30010c0b30090fc07002b
:104c040002448000134480005047800061478000c4
:104c1400829fbe00809fbe0060c42900801f780070
:104c2400208320000cf10700ea875700208320002e
:104c3400800178000001eb0021c0b30010c0b30074
:104c44007ffc070000c02600c12d20008609070054
:104c540092fd0700f0fc07000000eb0050079800ed
:104c64000100370000000000e0438000f1438000b1
:104c740018c0b30002c02300c36124007eee070005
:104c84000000e00001003c000044eb000804e000e8
:104c9400030032006000b800e0438800f14388005c
:104ca400b7fd07003ffd0700600798006e00900005
:104cb4000080e80010007800c800dd006e0090005d
:104cc40010007800008040004400de008000eb000b
:104cd400aaee0700008fbe0018c0b3000200200037
:104ce400632c24001e00be0063ee07000000e000f9
:104cf40001003c000044eb000804e0000200320024
:104d04006000b800008fbe00404380005143800023
:104d140018c0b300020020000316240056ee07005a
:104d24000000e00001003c000044eb000804e00047
:104d3400030032006000b8004043880051438800fb
:104d4400e0438000f14380004dee0700000478004a
:104d54001e00be004aee07000001780040438000b8
:104d640051438000881f7800821f7800809fbe0016
:104d740030c52900801f780020832000b6f007008a
:104d8400ea8757002083200079050700b145800099
:104d9400b0032000808f500004003400b628ef00d8
:104da400a04580000000e800a0458800a1458000df
:104db400b0032000808f500002003400b628ef00ba
:104dc400b428ef00a145800010488000808f500077
:104dd40004003a00b04580000000e00001003a0001
:104de400f8fd0700a145800010488000808f500026
:104df40007003a00b1458000e0458000808f5000f4
:104e040003003a00d602a900b628ef00b428ef0048
:104e14003009800030098000e30f50002c003e0070
:104e2400b0458000610060000000e00009003a0025
:104e34004043800051438000809fbe0040c629004b
:104e4400801f78002083200083f00700e687570046
:104e5400080037004043800051438000809fbe001b
:104e640070c72900801f7800208320007af0070093
:104e7400e687570020832000800178000001eb00c2
:104e840011c0b30010c0b300edfb07001e00be004c
:104e9400fbed070000007800f10d2000811f780071
:104ea400801f7800a0c82900801f7800208320007c
:104eb40069f00700e687570020832000800178000e
:104ec4000001eb0021c0b30010c0b300dcfb0700fd
:104ed40030098000e30f5000ae0036003009800036
:104ee400e70f5000ab003e0012012000d1c9290099
:104ef4002083200051f007002083200080017800e7
:104f04000001eb0011c0b30010c0b300ccfb0700dc
:104f14005047800061478000809fbe00e0ca29009e
:104f2400801f7800208320004bf00700e68757009d
:104f340020832000800178000001eb0021c0b30031
:104f440010c0b300befb070040168000680060007c
:104f54000000e0008f003a0000d82800b1052000ce
:104f6400c10807005047800061478000020020000c
:104f74000322240056ee0700e2ed0700000078004b
:104f84003009880065003700300980008000eb009c
:104f9400faed0700020020000322240072ed07004e
:104fa400504788006147880031098000b00d200017
:104fb400808f500002003e00c00d200030098800a0
:104fc4003109800000192000808f50000200360053
:104fd4000019200030098800504780006147800094
:104fe40018c0b30002002000030b2400a0ed07004a
:104ff4000000e000010034000044eb000804e0007d
:105004000500320000002000010b240050478800f6
:10501400614788000f0037005047800061478000d7
:1050240018c0b300020020000312240092ed070010
:105034000000e00001003d000044eb000804e00033
:1050440004003200000020000112240050478800b0
:1050540061478800c045800061006000004078001e
:105064000004e0001900320012012000d1c9290017
:1050740020832000f1ef07002083200080017800c6
:105084000001eb0011c0b30010c0b3006cfb0700bb
:105094005047800061478000809fbe00e0ca29001d
:1050a400801f780020832000ebef0700e68757007d
:1050b40020832000800178000001eb0021c0b300b0
:1050c40010c0b3005efb070014003700120120007b
:1050d400d1c9290020832000d8ef070020832000b5
:1050e400800178000001eb0011c0b30010c0b300d0
:1050f40053fb07001201200001cc2900208320006b
:10510400ceef070020832000800178000001eb002f
:1051140021c0b30010c0b30049fb07004016800053
:10512400680060000000e00097ff3a0050478000ec
:10513400614780000200200003122400e4ed070010
:105144004fed070000007800800078000000eb00bd
:105154007ffb070000982a00310020004208070066
:1051640050478000614780000200200003122400a1
:10517400d7ed070042ed07000000780080007800ba
:105184000000eb0072fb070000982a0031002000a9
:105194003508070030098000e70f5000cb003600c7
:1051a40030098000eb0f5000c8003e0012012000bf
:1051b40011cd290020832000a0ef070020832000c8
:1051c400800178000001eb0011c0b30010c0b300ef
:1051d4001bfb07007047800081478000809fbe0052
:1051e400e0ca2900801f7800208320009aef07007e
:1051f400e687570020832000800178000001eb003f
:1052040021c0b30010c0b3000dfb0700401680009e
:10521400680060000000e000ac003a0000d82800fc
:10522400b105200010080700704780008147800006
:105234000200200003222400a5ed070031ed070041
:1052440000007800300988008200370030098000af
:105254008000eb0049ed0700020020000322240037
:10526400c1ec07007047880081478800310980003d
:10527400b00d2000808f500002003e00c00d2000c1
:1052840030098800300980008000eb003bed070006
:105294000004be00504780006147800002002000e7
:1052a400032224008aed07001ac0b3000001be00e7
:1052b4000800be00f0ec07000000e00001003c0024
:1052c4000045eb000a04e00008003200504780006b
:1052d4006147800002002000032224007ced0700c7
:1052e40008ed07000000780030098800704780004e
:1052f4008147800018c0b30002002000030b240083
:10530400dbec07000000e000010034000044eb0087
:105314000804e0000500320000002000010b240016
:105324007047880081478800140037007447800064
:1053340085478000504780006147800018c0b30053
:105344000001be000400be00cbec07000000e0003a
:1053540001003d000044eb000804e00007003200b7
:105364005047800061478000d2cc2c00c3dc23006e
:105374001fec07007047880081478800c045800003
:1053840061006000004078000004e0001900320071
:105394001201200011cd29002083200027ef0700ef
:1053a40020832000800178000001eb0011c0b300cd
:1053b40010c0b300a2fa0700704780008147800044
:1053c400809fbe00e0ca2900801f7800208320004f
:1053d40021ef0700e6875700208320008001780032
:1053e4000001eb0021c0b30010c0b30094fa070021
:1053f400180037001201200011cd2900208320005d
:105404000eef070020832000800178000001eb00ec
:1054140011c0b30010c0b30089fa070070478000c0
:1054240081478000809fbe0000cc2900801f780047
:105434002083200008ef0700e68757002083200020
:10544400800178000001eb0021c0b30010c0b3005c
:105454007bfa070040168000680060000000e0004e
:105464007aff3a00704780008147800002002000e4
:10547400832c240016ed070081ec0700000078005f
:105484008000780010002000b1fa070000982a007c
:1054940031002000740707007047800081478000b6
:1054a40002002000832c240009ed070074ec07009f
:1054b400000078008000780010002000a4fa0700a3
:1054c40000982a0031002000670707003009800097
:1054d400eb0f5000cb00360030098000ef0f500076
:1054e400c8003e001201200021ce290020832000a4
:1054f400d2ee070020832000800178000001eb0039
:1055040011c0b30010c0b3004dfa070090478000eb
:10551400a1478000809fbe00e0ca2900801f780058
:1055240020832000ccee0700e6875700208320006c
:10553400800178000001eb0021c0b30010c0b3006b
:105544003ffa070040168000680060000000e00099
:10555400ac003a0000d82800b1052000420707003b
:1055640090478000a147800002002000032224000d
:10557400d7ec070063ec07000000780030098800ce
:1055840082003700300980008000eb007bec0700cc
:105594000200200003222400f3eb07009047880058
:1055a400a1478800300980008000eb0073ec0700fd
:1055b4000004be00504780006147800002002000c4
:1055c40003222400c2ec07001ac0b3000001be008d
:1055d4000800be0026ec07000000e00001003500d2
:1055e4000045eb000a04e000080032005047800048
:1055f400614780000200200003222400b4ec07006d
:1056040040ec070000007800300988003109800070
:1056140000192000808f500002003600001920007d
:105624003009880094478000a547800050478000d7
:105634006147800018c0b3000001be000400be0032
:105644000bec07000000e000010034000044eb0014
:105654000804e000080032005047800061478000e1
:10566400d2cc2c00c3dc230062eb070090478800f7
:10567400a14788000f00370090478000a1478000b1
:1056840018c0b3000200200003122400faeb070044
:105694000000e00001003d000044eb000804e000cd
:1056a400040032000000200001122400904788000a
:1056b400a1478800c0458000610060000040780078
:1056c4000004e000190032001201200031cf29004b
:1056d4002083200059ee07002083200080017800f9
:1056e4000001eb0011c0b30010c0b300d4f90700ef
:1056f40090478000a1478000809fbe00e0ca290037
:10570400801f78002083200053ee0700e6875700af
:1057140020832000800178000001eb0021c0b30049
:1057240010c0b300c6f907001800370012012000aa
:1057340031cf29002083200040ee07002083200081
:10574400800178000001eb0011c0b30010c0b30069
:10575400bbf9070090478000a1478000809fbe00ee
:1057640000cc2900801f7800208320003aee070037
:10577400e687570020832000800178000001eb00b9
:1057840021c0b30010c0b300adf90700401680007b
:10579400680060000000e0007aff3a009047800053
:1057a400a147800002002000832c240048ec07005d
:1057b400b3eb070000007800800078002000200090
:1057c400e3f9070000982a0031002000a60607002c
:1057d40090478000a147800002002000832c240011
:1057e4003bec0700a6eb070000007800800078007f
:1057f40020002000d6f9070000982a00310020007c
:105804009906070030098000ef0f5000820036002f
:1058140030098000f30f50007f003e001201200089
:1058240041d029002083200004ee070020832000bb
:10583400800178000001eb0011c0b30010c0b30078
:105844007ff90700e0458000801f780050d12900cf
:10585400801f780020832000ffed0700e4875700b5
:1058640020832000800178000001eb0021c0b300f8
:1058740010c0b30072f90700401680006800600091
:105884000000e00064003a0000d82800b1052000c0
:1058940075060700e04580006a00b9000000780042
:1058a4003009880051003700300980008000eb0087
:1058b400b2eb070002002000031224002aeb0700c9
:1058c4006feb070000007800e04588003009800095
:1058d4000000e00001003a002621ef0031098000b9
:1058e40030382000808f50000200360040382000fd
:1058f40030098800e04580000000e00001003c0021
:10590400bc28ef00e145800090052000808f500006
:1059140002003400a0052000e0458800c045800056
:1059240061006000004078000004e00018003200cc
:105934001201200041d0290020832000bfed070080
:1059440020832000800178000001eb0011c0b30027
:1059540010c0b3003af90700e0458000801f7800ca
:1059640050d12900801f780020832000baed070061
:10597400e487570020832000800178000001eb00b9
:1059840021c0b30010c0b3002df907001700370081
:105994001201200041d0290020832000a7ed070038
:1059a40020832000800178000001eb0011c0b300c7
:1059b40010c0b30022f90700e0458000801f780082
:1059c40070d22900801f780020832000a2ed0700f8
:1059d400e487570020832000800178000001eb0059
:1059e40021c0b30010c0b30015f9070040168000b1
:1059f400680060000000e000abff3a00e045800072
:105a0400800078005000200051f9070000982a0017
:105a1400310020001406070030098000f30f500005
:105a24007f00360030098000f70f50007c003e00f4
:105a34001201200071d32900208320007fed07008c
:105a440020832000800178000001eb0011c0b30026
:105a540010c0b300faf8070010488000801f7800d7
:105a640080d42900801f7800208320007aed07006d
:105a7400e487570020832000800178000001eb00b8
:105a840021c0b30010c0b300edf807004016800039
:105a9400680060000000e00061003a0000d82800bf
:105aa400b1052000f0050700104880006a00b90025
:105ab40000007800300988004e003700300980006b
